S0200000696D706564616E63655F6D657465725F6669726D776172652E7372656326
S1130000FDC0000021C100001FC100001DC100008F
S11300101BC1000019C1000017C1000015C1000078
S113002013C1000011C100000FC100000DC1000088
S11300300BC1000009C1000007C1000005C1000098
S113004003C1000001C10000FFC00000FDC00000AA
S1130050FBC00000F9C00000F7C00000F5C00000BC
S1130060F3C00000F1C00000EFC00000EDC00000CC
S1130070EBC00000E9C00000E7C00000E5C00000DC
S1130080E3C00000E1C00000DFC00000DDC00000EC
S1130090DBC00000D9C00000D7C00000D5C00000FC
S11300A0D3C00000D1C00000CFC00000CDC000000C
S11300B0CBC00000C9C00000C7C00000C5C000001C
S11300C0C3C00000C1C00000BFC00000BDC000002C
S11300D0BBC00000B9C00000B7C00000B5C000003C
S11300E0B3C00000B1C00000AFC00000ADC000004C
S11300F0ABC00000A9C00000A7C00000A5C000005C
S1130100A3C00000A1C000009FC000009DC000006B
S11301109BC0000099C0000097C0000095C000007B
S113012093C0000091C000008FC000008DC000008B
S11301308BC0000089C0000087C0000085C000009B
S113014083C0000081C000007FC000007DC00000AB
S11301507BC0000079C0000077C0000075C00000BB
S113016073C0000071C000006FC000006DC00000CB
S11301706BC0000069C0000067C0000065C00000DB
S113018063C0000061C000005FC000005DC00000EB
S11301905BC0000059C0000057C0000055C00000FB
S11301A053C0000051C000004FC000004DC000000B
S11301B04BC0000049C0000047C0000045C000001B
S11301C043C0000041C000003FC000003DC000002B
S11301D03BC0000039C0000037C0000035C000003B
S11301E033C0000031C000002FC000002DC000004B
S11301F02BC000000C9454090C94100A11241FBE47
S1130200CFEFCDBFDFE3DEBF00E00CBF18BE19BEE9
S11302101ABE1BBE10E2A0E0B0E2E4ECF9E100E09B
S11302200BBF02C007900D92A43CB107D9F71BBEC7
S113023026E2A4ECB0E201C01D92A531B207E1F7B9
S11302400E94460C0C94E00CDBCE8091C4200895EF
S11302508091C420813011F40C94900C089505D140
S1130260FC0183818093C420813011F40C948A0CA6
S113027081E008959091FF25892F807697FF08C02B
S11302808034A1F480910026811110C00C94AB0C31
S1130290803461F480910026811108C08091052684
S11302A090910626892B11F00C94930C80E008950C
S11302B00F931F939B018A01AC0160E081E82ED764
S11302C01F910F9108950F931F939B018A01AC0115
S11302D060E082E023D71F910F9108958091012659
S11302E08F778DC69091CC20992361F1E091CA203B
S11302F0F091CB200190F081E02D9481891710F5C5
S1130300E093C820F093C920228133812E0F3F1F30
S1130310E217F30798F49181943061F49281891380
S113032009C09381691306C0E093C820F093C920E3
S113033081E008959081E90FF11DEACFE093C82090
S1130340F093C92080E00895E091CA20F091CB2079
S11303500190F081E02D228133812E0F3F1FFC019B
S11303604081E40FF11DE217F30748F481818430E2
S113037031F0853039F08081E80FF11DF4CF80E051
S113038090E00895CF0108951F93CF93DF93182F22
S1130390A9DF882339F1C091C820D091C920CE01AA
S11303A0D3DFEC01009741F04C815D816B818A8140
S11303B03AD68111F4CF16C0E091CA20F091CB2037
S11303C092818381E92FF82FE10FF11DE10FF11DD7
S11303D00190F081E02D0190F081E02DDF91CF912B
S11303E01F91199480E0DF91CF911F910895FF929E
S11303F00F931F93CF93DF93C82F60E073DFF82E22
S1130400882361F1E091CA20F091CB20928183810D
S1130410E92FF82FEC0FF11DEC0FF11D0081118174
S1130420D8011696ED91FC9117971995682F8C2F8A
S113043059DFF82E882391F0C091C820D091C920AB
S1130440CE0182DFEC01009719F08A8114D7F8CF2E
S1130450D8011296ED91FC91139719958F2DDF9188
S1130460CF911F910F91FF9008958091C820909192
S1130470C920089553C5CF938091CC2081110AC01F
S11304801092CC2081E090E08093CD209093CE20F8
S1130490CF910895C0E0E091CA20F091CB20019063
S11304A0F081E02D8481C81758F78C2FA0DFCF5F2F
S11304B0F2CFCF938091CC208823F1F0C0E0E0917B
S11304C0CA20F091CB20A081B18114968C91C817D9
S11304D098F492818381E92FF82FEC0FF11DEC0F32
S11304E0F11D0190F081E02D0084F185E02D30971D
S11304F009F01995CF5FE3CFCF910895CF92DF92A2
S1130500FF920F931F93CF93DF931F92CDB7DEB764
S11305101092092610920A2610920B2610920C268D
S113052010920D2610920E262091FF2527FF07C05A
S11305308091052690910626892B09F448C2822FC2
S1130540807609F0D1C127FFFFC0809105269091E4
S11305500626009709F4C8C12F7109F09FC02091A5
S11305600026263069F0283009F490C02111BCC15E
S1130570029709F0B9C162E070E08DEC90E2E2C04C
S11305802091012630910226832F992782309105EC
S113059091F05CF4019709F0A7C180915E209091DD
S11305A05F20DC016C9170E05FC08330910581F1C4
S11305B00F9709F199C1E0915E20F0915F20818944
S11305C0281708F091C13327220F331F220F331F3E
S11305D0E0916020F0916120E20FF31F808191810E
S11305E0FC016281738116D5E0910726F0910826FB
S11305F082E081833AC080916220909163200097C9
S113060009F472C1DC0112966D917C9113972CC090
S1130610C90199278130910541F058F08230910544
S113062069F0039709F4CFC15FC16CE08CE490E2F8
S113063008C064E070E08AE590E216C065E186E3F4
S113064090E2282FACE0B0E2FC01819190E08D9320
S11306509D938E2F821B8617C0F3660F6E5F609387
S11306600A2070E08AE090E2D5D48091052690912A
S113067006262091092630910A268217930708F04E
S113068031C18093092690930A262CC1019709F061
S11306902BC161E070E08CEC90E254C02130E1F5B4
S11306A0209100262A3009F01FC1019709F01CC1CE
S11306B08091CC20882309F417C1C0900326D090E0
S11306C004260091CA201091CB20D801ED91FC9111
S11306D08481C81608F008C160E08C2D03DEF82E72
S11306E0882309F401C1DD24CC0CDD1CD801129649
S11306F0ED91FC911397EC0DFD1D0190F081E02D1F
S11307000680F781E02D19958093C72061E070E0A1
S113071087EC90E27FD4E4C0223009F0E5C0209158
S113072000262111E1C0029709F0DEC08091032662
S1130730D5D490E08093C5209093C62062E070E009
S113074085EC90E267D4CEC02F7109F07DC0809112
S11307500026833009F4C8C018F48130A1F0C4C065
S1130760853019F0893039F1BFC080910526909108
S11307700626892B09F0B8C08EE691E080930B26FB
S113078090930C26AFC08091052690910626892B64
S113079009F0AAC08091012690910226019709F0E0
S11307A0A3C08091CD209091CE208D7F8093CD20C9
S11307B09093CE2097C08091052690910626892B90
S11307C009F092C01FD4882309F48EC080910126B9
S11307D0909102269927E0915E20F0915F20218973
S11307E030E02817390708F47FC045DE2091012640
S11307F0309102262093CC20222309F473C033279E
S11308002150304C220F331F220F331F8091602060
S113081090916120820F931F8093CA209093CB20E4
S113082010E0E091CA20F091CB200190F081E02DFE
S11308308481181708F056C060E0812FA5DD882355
S113084009F452C01F5FEDCF2130F1F480910026EE
S11308508B3009F049C08091052690910626892B9A
S113086009F042C08091CC20882309F43DC0109146
S1130870032660910126812F6983B9DD698188236C
S113088099F1812F81DD2BC0223071F580910026F2
S1130890813019F0833089F027C08091052690912A
S11308A00626892B09F58091012690910226892B31
S11308B0D9F48091032619D412C080910526909111
S11308C00626892B89F48091012690910226892B92
S11308D059F480910326A4D480910326D5D4F82E0C
S11308E0FF2011F081E074C08091FF258F71813069
S11308F0B9F58091CC20882399F1C0900326D0903B
S113090004260091CA201091CB20D801ED91FC91CE
S11309108481C81628F560E08C2DE4DC882301F17D
S1130920C6019927880F991FD8011296ED91FC9161
S11309301397E80FF91F00811181D8011696ED91E4
S1130940FC9117971995682F8C2DCCDC882341F0E6
S1130950D8011496ED91FC91159719958111C2CF88
S11309608091FF258F71823091F58091CC2088236E
S113097071F110E0E091CA20F091CB20A081B18107
S113098014968C91181718F592818381E92FF82F0A
S1130990E10FF11DE10FF11DC080D180D601169643
S11309A0ED91FC9117971995682F812F9BDC882373
S11309B071F0D6011496ED91FC911597199581115A
S11309C091CF1F5FD7CF63E082EB90E23ACE80E015
S11309D00F90DF91CF911F910F91FF90DF90CF90F7
S11309E00895282F2F70992787FD90958827990FB0
S11309F0881F9927820F911D820F911D43E0880F54
S1130A00991F4A95E1F788539E4D08950F93E8EC9A
S1130A10F4E080818F7D808380818F7D8083E0ED11
S1130A20F1E202E005931092D2211092D32100E268
S1130A30069300E40693E8ECF1E200E2069300E496
S1130A40069310920B2610920C2610920D261092EB
S1130A500E261092092610920A261092B8210F91A0
S1130A6008950F9385E08093B821E1EDF1E204E06D
S1130A700593E9ECF1E204E005930F9108950F93D7
S1130A8083E08093B8211092D2211092D321E0ED1B
S1130A90F1E202E006930F910895E0910B26F091A4
S1130AA00C26309709F019940895982F9F70282FD9
S1130AB0332727FD30952227330F221F3327290F91
S1130AC0311D290F311D2250310949E0429FC001D7
S1130AD0439F900D1124805B9E4D08959091FC21BD
S1130AE0811108C0992381F02FB7F89490911026B2
S1130AF0915007C0911108C02FB7F8949091102617
S1130B009F5F909310262FBF8093FC2108958F92AE
S1130B109F92BF92CF92DF92EF92FF920F931F9317
S1130B20CF93DF93B82EC1DFEC018B2D5ADF7C010C
S1130B30DC011196EC91E770E150E73040F4F0E00D
S1130B40EE0FFF1FEA54FF4D0081118102C008E03F
S1130B5010E0ED81FE818B819C814881D701B7FE35
S1130B604FC016962D913C9117972E0F3F1F2D8342
S1130B703E832817390799F1FC01E21BF30B9F010F
S1130B802115F4E03F0738F02FEF33E0C901B80135
S1130B90FAD6281B390B41FF09C0C901B801F3D6A5
S1130BA041E0892B09F040E0942F01C090E0888156
S1130BB090FB81F98883D70116961D921C92179792
S1130BC012962D933C93139789819A812D813E81AE
S1130BD0820F931F14968D939C9315970DC041FF1C
S1130BE070C04D7F4883D70116961D921C921797AB
S1130BF012961D921C921397F70102E006937AC095
S1130C001296CD90DC90139742FF0FC089809A8092
S1130C10B801B9D6B0E4BB9EB001112460577F4D32
S1130C20AC01C4018E0F9F1FC2D66D817E816C0DF5
S1130C307D1D6D837E832B813C812617370710F43D
S1130C402D833E83F70186819781C816D906C9F59D
S1130C508D819E8182179307A1F1281B390B2115E1
S1130C60F4E03F0710F02FEF33E0C901B8018BD651
S1130C70281B390BD70112961D921C92139720172B
S1130C80310778F4888184608883B0E4BB9EC00116
S1130C90112480579F4DF70184839583068317831E
S1130CA0ABCF89819A814D815E81840F951FD701D5
S1130CB014968D939C93159716962D933C931797A2
S1130CC09BCF888180FF16C08E7F8883EF81F88553
S1130CD0309781F06D817E814B2D80E0DF91CF9143
S1130CE01F910F91FF90EF90DF90CF90BF909F9056
S1130CF08F901994DF91CF911F910F91FF90EF90F6
S1130D00DF90CF90BF909F908F9008950F93CF93D3
S1130D10DF938091B821833029F4BFDEDF91CF9136
S1130D200F9174CE2091B4213091B521C091092640
S1130D30D0910A26C21BD30B61F58091B621909104
S1130D40B721820F931F8093B6219093B7212091EE
S1130D500526309106262817390721F08091CF20E7
S1130D60882331F084E08093B821E8ECF1E236C0C6
S1130D70E0910D26F0910E26309799F0199588236D
S1130D8081F01092B4211092B521C0910926D0911E
S1130D900A26C034D10528F01092CF20C0E4D0E058
S1130DA003C081E08093CF20C093D221D093D3217C
S1130DB02091B4213091B521809107269091082685
S1130DC0820F931F8093D4219093D521C20FD31FF8
S1130DD0C093B421D093B521E0EDF1E202E0069393
S1130DE0DF91CF910F9108950F93CF93DF931F92CB
S1130DF0CDB7DEB78091CC0480FF65C081E08093DD
S1130E00CC04E8ECF1E200E80693E0EDF1E200E85E
S1130E1006938093CA04E8ECF1E200E10693809122
S1130E20B821882329F08350823008F436DEEEDDC1
S1130E308091CA219091CB21089709F046C088E09F
S1130E40E4E7F1E2AFEFB5E201900D928A95E1F7A4
S1130E508091C80480628093C8048091C804806231
S1130E608093C8044BDB811102C0FBDD2EC090913E
S1130E70FF2597FF0EC01092B6211092B721109251
S1130E80B4211092B52192E09093B82189833EDF7A
S1130E9008C02091052630910626232B21F489834E
S1130EA0EEDD898113C01092B6211092B721109201
S1130EB0B4211092B52191E09093B821E8ECF1E2CD
S1130EC002E0069303C080E001C081E00F90DF914F
S1130ED0CF910F910895CF93CFB7F89481E0FEDDC1
S1130EE0EAECF4E080E4808380E28083E1ECF4E0E7
S1130EF0808181608083A9ECB4E08C9182608C93C2
S1130F00E8ECF4E08081806480838C9181608C9330
S1130F10808180688083CFBFCF910895CF93109252
S1130F20600080E35ED48091C00480648093C00438
S1130F3081E080936000CFB7F8941092C921109299
S1130F40D1211092D9211092E1211092E92110921D
S1130F50F121809150218E7F8093502180915921DD
S1130F608E7F80935921809162218E7F80936221AC
S1130F7080916B218E7F80936B216AE170E082E027
S1130F804AD48F3F09F48FE18093FA046BE170E057
S1130F9082E041D48F3F09F48FE18093FB04809178
S1130FA0C00482608093C0048091C00480688093F0
S1130FB0C0048091C00480618093C00488EC91E2F5
S1130FC08093C6049093C7048091C0048062809388
S1130FD0C0048FEF8093C5048091C804816080931E
S1130FE0C8041092FC219FB7F894809114268F5F57
S1130FF0809314269FBF6FDFCFBFCF910895809356
S1131000C30408958091C30408958091F8219091B8
S1131010F921089580930726909308266093092662
S113102070930A2608950F931F93CF93DF931F9213
S1131030CDB7DEB78A016983D4DCFC018181807C71
S11310406981811142C06370613029F010F490E429
S113105003C090E801C090EC00381105E1F050F4B1
S113106000321105A1F00034110599F00031110589
S113107061F419C0011582E0180789F00F3FA3E05D
S11310801A0779F00115114041F080E00DC082E0AB
S11310900BC083E009C084E007C085E005C086E09A
S11310A003C087E001C081E0118226E02083892B00
S11310B081838181807C803C21F4818187708730A9
S11310C031F081818062818302C080E001C081E0CF
S11310D00F90DF91CF911F910F91089582DCFC0155
S11310E0818182FB882780F90895CF93C82F79DC0A
S11310F0FC01818182FF0FC091819B7F91838C2FA2
S1131100D4DCFC01808180FF06C08E7F8083078051
S1131110F085E02D199581E0CF9108958F929F92EB
S1131120BF92CF92DF92EF92FF920F931F93CF93D0
S1131130DF931F92CDB7DEB7B82E6A0179016983B8
S1131140B4DC4C018B2D4DDCFC018181807C6981F8
S1131150882309F457C08181807C803C19F0818107
S113116082FD50C08FB7F894D4019C9190FF02C0C7
S11311708FBF48C09160D4019C938FBFD401119656
S1131180CD92DC9212971396ED92FC9214971596D9
S11311901D921C92169717960D931C93189791E025
S11311A0611104C0E114F10409F090E0D4018C91C0
S11311B090FB81F98B7F8C93B7FC1EC08181807C6E
S11311C0803CC1F4A181A770A150A73040F4B0E0E5
S11311D0AA0FBB1FAA54BF4D6D917C9102C068E059
S11311E070E0C701D0D3892B29F0F40180818E7F70
S11311F0808308C012821382168217828B2D87DCAB
S113120081E001C080E00F90DF91CF911F910F9199
S1131210FF90EF90DF90CF90BF909F908F900895B4
S11312200F931F93CF93DF93182FDBDBEC01812FF8
S11312303CDCDC01FE0102E005938C9180FF16C0CA
S11312408E7F8C931796ED91FC911897309771F0DF
S113125017FF03C06E817F8102C06A817B81412FA9
S113126081E0DF91CF911F910F911994DF91CF917C
S11312701F910F910895CF93C82FD2DF8C2FB1DB2C
S1131280FC011182CF9108950F93CF93C82FA9DB4E
S1131290FC0191819460918301E006938C2FC0DF5F
S11312A081E0CF910F9108951F920F920FB60F9284
S11312B0112408B60F9218BE09B60F9219BE0BB6C8
S11312C00F921BBE0F932F933F934F935F936F9394
S11312D07F938F939F93AF93BF93EF93FF938091EB
S11312E0CB0487FF06C080E88093CA04E2D80BD3FE
S11312F07FC08091CB0482FF18C084E08093CA042D
S11313008091D02186FF74C08091CC0481FD70C08F
S11313106BDD81116DC08091B821813011F4AFDB98
S113132067C0843009F064C021C08091CB0481FF80
S113133026C082E08093CA048091C82186FF58C0E9
S11313408091CC0481FD54C04FDD811151C0809146
S1131350B821823041F484E08093B821E8ECF1E2D2
S113136002E0069345C0833009F042C0E1EDF1E2AA
S113137004E00593E9ECF1E204E0059339C08091BF
S1131380CB0484FF20C080E18093CA0481E048DF5D
S113139081E846DF70D81092C3041092C92196E008
S11313A09093C82183E48093C9211092D121909312
S11313B0D0218093D12184E791E28093CC21909332
S11313C0CD2124DB15C08091CB0486FF07C080E4C7
S11313D08093CA0480E082DB94D20AC08091CB045B
S11313E085FF06C080E28093CA0481E077DB8AD25D
S11313F0FF91EF91BF91AF919F918F917F916F91E9
S11314005F914F913F912F910F910F900BBE0F90D1
S113141009BE0F9008BE0F900FBE0F901F90189535
S11314201F920F920FB60F92112408B60F9218BE96
S113143009B60F9219BE0AB60F921ABE0BB60F92D6
S11314401BBE0F931F932F933F934F935F936F9301
S11314507F938F939F93AF93BF93CF93DF93EF9338
S1131460FF938091CC0481FF1AC082E08093CC0466
S11314708091C504E8ECF1E28195880FE81BF1093D
S113148020813181285C3142E3E036952795EA9545
S1131490E1F7C22FC69520FF06C080E805C0A4DC92
S11314A0882319F386C080E0C80F8C2F9ADAFC01D8
S11314B0808185FF7EC000E20693C11174C08091D3
S11314C0B821843019F4E9DAA1DA73C0C091CA21D1
S11314D0D091CB218091092690910A260091B421C4
S11314E01091B52198012C0F3D1F8217930718F412
S11314F0EC01C01BD10B8091072690910826AE0108
S113150064E771E2800F911F52D20C0F1D1F0093EC
S1131510B4211093B521C034D10569F48091B6216A
S11315209091B721800F911F2091052630910626B6
S11315308217930788F00093092610930A26E091F6
S11315400D26F0910E26309729F01995811102C0CD
S113155088DA2FC094DA2DC08091092690910A264A
S113156080179107D9F4E0910D26F0910E2630975B
S113157079F31995882361F38091B6219091B7216D
S11315802091B4213091B521820F931F8093B6210D
S11315909093B7211092B4211092B521E8ECF1E2B6
S11315A002E0069306C0C03811F4B0DB02C08C2FF1
S11315B0AEDAFF91EF91DF91CF91BF91AF919F91FF
S11315C08F917F916F915F914F913F912F911F91D7
S11315D00F910F900BBE0F900ABE0F9009BE0F9093
S11315E008BE0F900FBE0F901F90189543E050E077
S11315F060E180E096E055D043E050E068E080E0B0
S113160096E04FD043E050E064E080E096E049D0BB
S113161043E050E060E880E496E043D043E050E0EB
S113162060E280E496E03DD040E050E060E480E495
S113163096E037D043E050E060E180E496E031C0CA
S1131640E0E0F6E080E1868388E0858384E08583BA
S11316500895E0E0F6E080E1858388E0858384E016
S11316608583089580E1E0E0F6E086830895882389
S113167021F084E080930606089584E080930506B3
S1131680089568EE73E07FD1009721F488E0809399
S113169006060895843F914019F488E08093050676
S11316A00895FC0180E090E0262F30E0D901082E57
S11316B002C0B595A7950A94E2F7A0FF05C0DF0123
S11316C0A80FB91F50965C9301968830910571F765
S11316D040FF07C041FF02C0658301C06683618388
S11316E00895628308959FB7F894E0E5F0E02081BF
S11316F0822B80839FBF08959FB7F894A0E5B0E044
S113170016968C911697897F16968C931697E0E619
S1131710F0E080E885838BEB868316968C91169790
S1131720846016968C938081816080839FBF089526
S1131730CF93DF9300D01F92CDB7DEB78FEF8093A6
S11317407000809371008093720080937300809383
S11317507400809375008093760064E081E490E0E7
S113176064D06CE170E082E056D08C836DE170E06F
S113177082E051D08B838B819C81019621F480E49B
S113178093E28B839C838B819C8189839A8380934E
S113179062008A818093630082E0A5DF809151001A
S11317A081FFFCCFA9DF61E080E490E03ED09FB7E9
S11317B0F894809150008E7F809350009FBF2496B0
S11317C0CDBFDEBFDF91CF9108959FB7F894E82F86
S11317D0F0E0E059FF4F60958081862380839FBFAE
S11317E00895CF93863011F4C8E101C0C0E0809120
S11317F0510081FD07C082E076DF8091510081FFB6
S1131800FCCF7ADF6C2F636084E490E00ED060E458
S113181080E0CF91DACF4091CA01E62FF72F809371
S1131820CA0184914093CA0108951BBEFC0128EDAE
S113183024BF6083089580E01ADF49E25CE060E041
S113184074E08EEF91E20C946301811101C0F3CF37
S11318500895CF93DF931F921F92CDB7DEB7811106
S113186010C081E069837A8302DF45E25CE069812C
S11318707A818EEF91E20F900F90DF91CF910C94CB
S113188058010F900F90DF91CF91089587E08093D6
S1131890A200789410920F2610921026109211260E
S11318A0109212261092132681E08093142640DFB2
S11318B09DDEC6DE0E943A028FE096E2F894AFE025
S11318C0B6E2EA2FE81B2D912223D9F3E11102C0DD
S11318D07894F4CF20914800F0E0E555FF4D217F46
S11318E03081232B209348002091480021602093CD
S11318F0480078948895209148002E7F20934800D2
S1131900DDCFA7CEAFCE8091FE25882311F07DDBFD
S1131910B8CE089581E08093FE258DDF81E008959F
S11319201092FE25089581E0A2DE8EEF91E280936D
S113193007269093082680910526909106268130EB
S113194024E0920710F080E094E0809309269093BD
S11319500A2681E0089580E08ADE8EEF91E280938A
S113196007269093082680910526909106268130BB
S113197024E0920710F080E094E08093092690938D
S11319800A2681E00895AA1BBB1B51E107C0AA1FC8
S1131990BB1FA617B70710F0A61BB70B881F991F0C
S11319A05A95A9F780959095BC01CD010895FB0146
S11319B0DC0102C001900D9241505040D8F70895C7
S10719C0F894FFCFC5
S11319C42F0128013A012501000000030000000052
S11319D400000000000000000000000000000000FF
S11319E400000000000000000000000000000000EF
S11319F4000000000000536D616C6C20496D70653B
S1131A0464616E6365204D65746572004D6174652F
S1131A146A20476F6D626F63000004030904982011
S1131A24642000006C2068200020000009022900C2
S1131A34010100C0FA0904000000FFFFFF000904CB
S1131A44000102FFFFFF00070581024000000705B3
S1131A5402024000000000001201000200000040E5
S1131A64EB0323240001010203010000000E060C11
S1131A740400312E300010002000400080000001DA
S1071A840002FF0356
S9030000FC
