:10000000FDC0000021C100001FC100001DC1000093
:100010001BC1000019C1000017C1000015C100007C
:1000200013C1000011C100000FC100000DC100008C
:100030000BC1000098C5000007C1000005C1000009
:1000400003C1000001C10000FFC00000FDC00000AE
:10005000FBC00000F9C00000F7C00000F5C00000C0
:10006000F3C00000F1C00000EFC00000EDC00000D0
:10007000EBC00000E9C00000E7C00000E5C00000E0
:10008000E3C00000E1C00000DFC00000DDC00000F0
:10009000DBC00000D9C00000D7C00000D5C0000000
:1000A000D3C00000D1C00000CFC00000CDC0000010
:1000B000CBC00000C9C0000088C50000C5C000005A
:1000C000C3C00000C1C00000BFC00000BDC0000030
:1000D000BBC00000B9C00000B7C00000B5C0000040
:1000E000B3C00000B1C00000AFC00000ADC0000050
:1000F000ABC00000A9C00000A7C00000A5C0000060
:10010000A3C00000A1C000009FC000009DC000006F
:100110009BC0000099C0000097C0000095C000007F
:1001200093C0000091C000008FC000008DC000008F
:100130008BC0000089C0000087C0000085C000009F
:1001400083C0000081C000007FC000007DC00000AF
:100150007BC0000079C0000077C0000075C00000BF
:1001600073C0000071C000006FC000006DC00000CF
:100170006BC0000069C0000067C0000065C00000DF
:1001800063C0000061C000005FC000005DC00000EF
:100190005BC0000059C0000057C0000055C00000FF
:1001A00053C0000051C000004FC000004DC000000F
:1001B0004BC0000049C0000047C0000045C000001F
:1001C00043C0000041C000003FC000003DC000002F
:1001D0003BC0000039C0000037C0000035C000003F
:1001E00033C0000031C000002FC000002DC000004F
:1001F0002BC000000C94900A0C944E0B11241FBECF
:10020000CFEFCDBFDFE3DEBF00E00CBF18BE19BEED
:100210001ABE1BBE10E2A0E0B0E2E4E9FEE100E09D
:100220000BBF02C007900D92A43CB107D9F71BBECB
:1002300026E2A4ECB0E201C01D92AD31B207E1F7B5
:100240000E94860E0C94480FDBCE84E0E0E4F6E0DA
:1002500086830895CF93DF93CDB7DEB72997CDBFBF
:10026000DEBF80E593ECA0E0B0E089839A83AB83A6
:10027000BC8380E589878BEE90E0A0E0B0E08D83C1
:100280009E83AF83B88760E483E00E94DF0DBE01E8
:100290006F5F7F4F80E894E0CAD42996CDBFDEBF60
:1002A000DF91CF9108958091C42008958091C4205A
:1002B000813011F40C94D60E089508D1FC0183818D
:1002C0008093C420813011F40C94CF0E81E0089506
:1002D00090910726892F807697FF08C08034A1F47B
:1002E00080910826811110C00C94F10E803461F4C5
:1002F00080910826811108C080910D2690910E26CC
:10030000892B11F00C94D90E80E008950F931F9360
:100310009B018A01AC0160E081E80E94CA091F913B
:100320000F9108950F931F939B018A01AC0160E028
:1003300082E00E94CA091F910F91089580910926B9
:100340008F7799C79091CC20992361F1E091CA20D1
:10035000F091CB200190F081E02D9481891710F568
:10036000E093C820F093C920228133812E0F3F1FD4
:10037000E217F30798F49181943061F49281891324
:1003800009C09381691306C0E093C820F093C92087
:1003900081E008959081E90FF11DEACFE093C82034
:1003A000F093C92080E00895E091CA20F091CB201D
:1003B0000190F081E02D228133812E0F3F1FFC013F
:1003C0004081E40FF11DE217F30748F48181843086
:1003D00031F0853039F08081E80FF11DF4CF80E0F5
:1003E00090E00895CF0108951F93CF93DF93182FC6
:1003F000A9DF882339F1C091C820D091C920CE014E
:10040000D3DFEC01009741F04C815D816B818A81E3
:1004100046D78111F4CF16C0E091CA20F091CB20CD
:1004200092818381E92FF82FE10FF11DE10FF11D7A
:100430000190F081E02D0190F081E02DDF91CF91CE
:100440001F91199480E0DF91CF911F910895FF9241
:100450000F931F93CF93DF93C82F60E073DFF82EC5
:10046000882369F1E091CA20F091CB2092818381A9
:10047000E92FF82FEC0FF11DEC0FF11D0081118118
:10048000D8011696ED91FC9117971995682F8C2F2E
:1004900059DFF82E882399F0C091C820D091C92047
:1004A000CE0182DFEC01009721F08A810E94770A59
:1004B000F7CFD8011296ED91FC91139719958F2DD6
:1004C000DF91CF911F910F91FF9008958091C820E7
:1004D0009091C92008955EC6CF938091CC20811160
:1004E0000AC01092CC2081E090E08093CD209093C0
:1004F000CE20CF910895C0E0E091CA20F091CB20AA
:100500000190F081E02D8481C81758F78C2F9FDF70
:10051000CF5FF2CFCF938091CC208823F1F0C0E061
:10052000E091CA20F091CB20A081B18114968C91EA
:10053000C81798F492818381E92FF82FEC0FF11DF1
:10054000EC0FF11D0190F081E02D0084F185E02D8C
:10055000309709F01995CF5FE3CFCF910895CF92EF
:10056000DF92FF920F931F93CF93DF931F92CDB72C
:10057000DEB71092112610921226109213261092B6
:10058000142610921526109216262091072627FF72
:1005900007C080910D2690910E26892B09F448C240
:1005A000822F807609F0D1C127FFFFC080910D26F0
:1005B00090910E26009709F4C8C12F7109F09FC0D1
:1005C00020910826263069F0283009F490C02111C6
:1005D000BCC1029709F0B9C162E070E08DEC90E215
:1005E000E2C02091092630910A26832F9927823074
:1005F000910591F05CF4019709F0A7C180915F200B
:1006000090916020DC016C9170E05FC083309105B7
:1006100081F10F9709F199C1E0915F20F09160207D
:100620008189281708F091C13327220F331F220F29
:10063000331FE0916120F0916220E20FF31F80816F
:100640009181FC016281738121D6E0910F26F091A6
:10065000102682E081833AC08091632090916420CB
:10066000009709F472C1DC0112966D917C91139789
:100670002CC0C90199278130910541F058F0823092
:10068000910569F0039709F4CFC15FC16CE08CE478
:1006900090E208C064E070E08AE590E216C065E18F
:1006A00086E390E2282FACE0B0E2FC01819190E07B
:1006B0008D939D938E2F821B8617C0F3660F6E5FFE
:1006C00060930A2070E08AE090E2E0D580910D26E8
:1006D00090910E26209111263091122682179307B1
:1006E00008F031C180931126909312262CC10197F6
:1006F00009F02BC161E070E08CEC90E254C0213035
:10070000E1F5209108262A3009F01FC1019709F070
:100710001CC18091CC20882309F417C1C0900B26FE
:10072000D0900C260091CA201091CB20D801ED91D9
:10073000FC918481C81608F008C160E08C2D02DEAF
:10074000F82E882309F401C1DD24CC0CDD1CD8016E
:100750001296ED91FC911397EC0DFD1D0190F08127
:10076000E02D0680F781E02D19958093C72061E088
:1007700070E087EC90E28AD5E4C0223009F0E5C051
:10078000209108262111E1C0029709F0DEC0809176
:100790000B26E0D590E08093C5209093C62062E0C0
:1007A00070E085EC90E272D5CEC02F7109F07DC06B
:1007B00080910826833009F4C8C018F48130A1F074
:1007C000C4C0853019F0893039F1BFC080910D2641
:1007D00090910E26892B09F0B8C08EE991E08093A4
:1007E000132690931426AFC080910D2690910E266B
:1007F000892B09F0AAC08091092690910A260197B9
:1008000009F0A3C08091CD209091CE208D7F809360
:10081000CD209093CE2097C080910D2690910E26EA
:10082000892B09F092C02AD5882309F48EC08091C3
:10083000092690910A269927E0915F20F091602087
:10084000218930E02817390708F47FC045DE209160
:10085000092630910A262093CC20222309F473C064
:1008600033272150304C220F331F220F331F80912A
:10087000612090916220820F931F8093CA209093F1
:10088000CB2010E0E091CA20F091CB200190F081C4
:10089000E02D8481181708F056C060E0812FA4DD98
:1008A000882309F452C01F5FEDCF2130F1F480910D
:1008B00008268B3009F049C080910D2690910E26B4
:1008C000892B09F042C08091CC20882309F43DC0D7
:1008D00010910B2660910926812F6983B8DD69810B
:1008E000882399F1812F80DD2BC0223071F5809112
:1008F0000826813019F0833089F027C080910D26B9
:1009000090910E26892B09F58091092690910A264F
:10091000892BD9F480910B2624D512C080910D2605
:1009200090910E26892B89F48091092690910A26B0
:10093000892B59F480910B26AFD580910B26E0D5F9
:10094000F82EFF2011F081E074C0809107268F718E
:100950008130B9F58091CC20882399F1C0900B2685
:10096000D0900C260091CA201091CB20D801ED9197
:10097000FC918481C81628F560E08C2DE3DC882387
:1009800001F1C6019927880F991FD8011296ED91A0
:10099000FC911397E80FF91F00811181D801169679
:1009A000ED91FC9117971995682F8C2DCBDC88233E
:1009B00041F0D8011496ED91FC911597199581118C
:1009C000C2CF809107268F71823091F58091CC2023
:1009D000882371F110E0E091CA20F091CB20A08132
:1009E000B18114968C91181718F592818381E92FA3
:1009F000F82FE10FF11DE10FF11DC080D180D6016C
:100A00001696ED91FC9117971995682F812F9ADC16
:100A1000882371F0D6011496ED91FC9115971995E4
:100A2000811191CF1F5FD7CF63E082EB90E23ACE86
:100A300080E00F90DF91CF911F910F91FF90DF9099
:100A4000CF900895CF93DF93E091CF20F091D02005
:100A5000848183FF06C08860848383E0838386EF7C
:100A60007DC0982F947121F083E083838FEF76C04F
:100A700086FF40C0A091D120B091D2208091D32098
:100A80009091D42014962D913C911597821793073D
:100A900064F49C012F5F3F4F2093D3203093D420E8
:100AA000A80FB91F11968C9121C08091D5209091EB
:100AB000D62018962D913C91199782179307C0F470
:100AC0002091D720222321F086818160868348C02F
:100AD00016960D90BC91A02D9C012F5F3F4F209347
:100AE000D5203093D620A80FB91F8C91878338C0AA
:100AF00083E02BC087FF31C0A091D120B091D220DC
:100B00008091D5209091D62018962D913C911997DF
:100B100082179307F0F41696CD91DC9117979C01FC
:100B20002F5F3F4F2093D5203093D6204781C80FA9
:100B3000D91F488318968D919C91199728173907CA
:100B400018F482E083830CC087E083831092D9205D
:100B500007C083E0838389EF01C08BEF8093D920A6
:100B6000DF91CF9108951F920F920FB60F9211242B
:100B700008B60F9218BE09B60F9219BE0BB60F92A7
:100B80001BBE2F933F934F935F936F937F938F93EE
:100B90009F93AF93BF93EF93FF9354DFFF91EF9138
:100BA000BF91AF919F918F917F916F915F914F9185
:100BB0003F912F910F900BBE0F9009BE0F9008BE72
:100BC0000F900FBE0F901F9018951F920F920FB6A7
:100BD0000F92112408B60F9218BE09B60F9219BED3
:100BE0000BB60F921BBE2F933F934F935F936F9360
:100BF0007F938F939F93AF93BF93EF93FF9322DFE6
:100C0000FF91EF91BF91AF919F918F917F916F91E4
:100C10005F914F913F912F910F900BBE0F9009BEA6
:100C20000F9008BE0F900FBE0F901F901895FC01FB
:100C3000DB0114968C91858388EB818381E084832A
:100C40001092D8201092D920E0EAF0E082818260F0
:100C50008283789480E00895282F2F70992787FD4C
:100C600090958827990F881F9927820F911D820FD1
:100C7000911D43E0880F991F4A95E1F780539E4DDF
:100C800008950F93E8ECF4E080818F7D808380816C
:100C90008F7D8083E8EDF1E202E005931092DA2186
:100CA0001092DB2100E2069300E40693E0EDF1E20E
:100CB00000E2069300E40693109213261092142685
:100CC00010921526109216261092112610921226B6
:100CD0001092C3210F9108950F9385E08093C32153
:100CE000E9EDF1E204E00593E1EDF1E204E00593C2
:100CF0000F9108950F9383E08093C3211092DA211E
:100D00001092DB21E8EDF1E202E006930F910895E5
:100D1000E0911326F0911426309709F01994089564
:100D2000982F9F70282F332727FD30952227330FC8
:100D3000221F3327290F311D290F311D2250310960
:100D400049E0429FC001439F900D1124855A9E4D5A
:100D5000089590910422811108C0992381F02FB742
:100D6000F89490911826915007C0911108C02FB7A0
:100D7000F894909118269F5F909318262FBF809328
:100D8000042208958F929F92BF92CF92DF92EF92AA
:100D9000FF920F931F93CF93DF93B82EC1DFEC0127
:100DA0008B2D5ADF7C01DC011196EC91E770E1504C
:100DB000E73040F4F0E0EE0FFF1FEA54FF4D0081F2
:100DC000118102C008E010E0ED81FE818B819C81E1
:100DD0004881D701B7FE50C016962D913C911797C8
:100DE0002E0F3F1F2D833E8328173907A1F1FC01E9
:100DF000E21BF30B9F012115F4E03F0740F02FEFBA
:100E000033E0C901B8010E94090F281B390B41FFCB
:100E100009C0C901B801FDD741E0892B09F040E0C4
:100E2000942F01C090E0888190FB81F98883D701DD
:100E300016961D921C92179712962D933C9313971A
:100E400089819A812D813E81820F931F14968D9303
:100E50009C9315970DC041FF70C04D7F4883D7010B
:100E600016961D921C92179712961D921C9213971C
:100E7000F70102E006937AC01296CD90DC901397AA
:100E800042FF0FC089809A80B801C3D7B0E4BB9EEF
:100E9000B001112465567F4DAC01C4018E0F9F1F18
:100EA000EED76D817E816C0D7D1D6D837E832B81E0
:100EB0003C812617370710F42D833E83F701868186
:100EC0009781C816D906C9F58D819E81821793072F
:100ED000A1F1281B390B2115F4E03F0710F02FEF8B
:100EE00033E0C901B80195D7281B390BD7011296F9
:100EF0001D921C9213972017310778F48881846023
:100F00008883B0E4BB9EC001112485569F4DF70134
:100F10008483958306831783ABCF89819A814D8122
:100F20005E81840F951FD70114968D939C9315971E
:100F300016962D933C9317979BCF888180FF16C000
:100F40008E7F8883EF81F885309781F06D817E8177
:100F50004B2D80E0DF91CF911F910F91FF90EF908B
:100F6000DF90CF90BF909F908F901994DF91CF9199
:100F70001F910F91FF90EF90DF90CF90BF909F90C7
:100F80008F9008950F93CF93DF938091C321833087
:100F900029F4BEDEDF91CF910F9173CE2091BF2156
:100FA0003091C021C0911126D0911226C21BD30BC3
:100FB00061F58091C1219091C221820F931F80938E
:100FC000C1219093C22120910D2630910E26281721
:100FD000390721F08091DA20882331F084E0809372
:100FE000C321E0EDF1E236C0E0911526F09116261E
:100FF000309799F01995882381F01092BF211092B3
:10100000C021C0911126D0911226C034D10528F0FC
:101010001092DA20C0E4D0E003C081E08093DA20AF
:10102000C093DA21D093DB212091BF213091C021E0
:1010300080910F2690911026820F931F8093DC21C0
:101040009093DD21C20FD31FC093BF21D093C02145
:10105000E8EDF1E202E00693DF91CF910F91089560
:101060000F93CF93DF931F92CDB7DEB78091CC045F
:1010700080FF65C081E08093CC04E0EDF1E200E800
:101080000693E8EDF1E200E806938093CA04E0EDF0
:10109000F1E200E106938091C321882329F0835077
:1010A000823008F435DEEDDD8091D2219091D3219C
:1010B000089709F046C088E0EFE7F1E2A7E0B6E262
:1010C00001900D928A95E1F78091C8048062809327
:1010D000C8048091C80480628093C80440DA8111FA
:1010E00002C0FADD2EC09091072697FF0EC0109225
:1010F000C1211092C2211092BF211092C02192E012
:101100009093C32189833EDF08C020910D26309142
:101110000E26232B21F48983EDDD898113C01092E3
:10112000C1211092C2211092BF211092C02191E0E2
:101130009093C321E0EDF1E202E0069303C080E06A
:1011400001C081E00F90DF91CF910F910895CF936F
:10115000CFB7F89481E0FDDDEAECF4E080E4808331
:1011600080E28083E1ECF4E0808181608083A9ECFF
:10117000B4E08C9182608C93E8ECF4E08081806430
:1011800080838C9181608C93808180688083CFBFC5
:10119000CF910895CF931092600080E31CD5809189
:1011A000C00480648093C00481E080936000CFB766
:1011B000F8941092D1211092D9211092E12110922D
:1011C000E9211092F1211092F92180915B218E7F0B
:1011D00080935B21809164218E7F80936421809134
:1011E0006D218E7F80936D21809176218E7F8093FB
:1011F00076216AE170E082E04ED58F3F09F48FE1FD
:101200008093FA046BE170E082E045D58F3F09F4EA
:101210008FE18093FB048091C00482608093C004BE
:101220008091C00480688093C0048091C004806174
:101230008093C00480ED91E28093C6049093C7042C
:101240008091C00480628093C0048FEF8093C504B6
:101250008091C80481608093C804109204229FB7D3
:10126000F89480911C268F5F80931C269FBF6FDFB0
:10127000CFBFCF9108958093C30408958091C30494
:1012800008958091002290910122089580930F2665
:1012900090931026609311267093122608950F9351
:1012A0001F93CF93DF931F92CDB7DEB78A01698377
:1012B000D3DCFC018181807C6981811142C0637033
:1012C000613029F010F490E403C090E801C090EC84
:1012D00000381105E1F050F400321105A1F000349E
:1012E000110599F00031110561F419C0011582E072
:1012F000180789F00F3FA3E01A0779F00115114094
:1013000041F080E00DC082E00BC083E009C084E0C2
:1013100007C085E005C086E003C087E001C081E02A
:10132000118226E02083892B81838181807C803C0F
:1013300021F481818770873031F0818180628183DF
:1013400002C080E001C081E00F90DF91CF911F913A
:101350000F91089581DCFC01818182FB882780F94F
:101360000895CF93C82F78DCFC01818182FF0FC0E4
:1013700091819B7F91838C2FD3DCFC01808180FF46
:1013800006C08E7F80830780F085E02D199581E06F
:10139000CF9108958F929F92BF92CF92DF92EF925A
:1013A000FF920F931F93CF93DF931F92CDB7DEB7BA
:1013B000B82E6A0179016983B3DC4C018B2D4CDCBA
:1013C000FC018181807C6981882309F457C0818177
:1013D000807C803C19F0818182FD50C08FB7F894E9
:1013E000D4019C9190FF02C08FBF48C09160D4018E
:1013F0009C938FBFD4011196CD92DC9212971396D5
:10140000ED92FC92149715961D921C9216971796C2
:101410000D931C93189791E0611104C0E114F1043D
:1014200009F090E0D4018C9190FB81F98B7F8C9333
:10143000B7FC1EC08181807C803CC1F4A181A77073
:10144000A150A73040F4B0E0AA0FBB1FAA54BF4D73
:101450006D917C9102C068E070E0C701DAD4892BFD
:1014600029F0F40180818E7F808308C0128213826C
:10147000168217828B2D86DC81E001C080E00F9000
:10148000DF91CF911F910F91FF90EF90DF90CF9060
:10149000BF909F908F9008950F931F93CF93DF93EA
:1014A000182FDADBEC01812F3BDCDC01FE0102E0CE
:1014B00005938C9180FF16C08E7F8C931796ED91CB
:1014C000FC911897309771F017FF03C06E817F81F0
:1014D00002C06A817B81412F81E0DF91CF911F9112
:1014E0000F911994DF91CF911F910F910895CF9390
:1014F000C82FD2DF8C2FB0DBFC011182CF91089571
:101500000F93CF93C82FA8DBFC0191819460918346
:1015100001E006938C2FC0DF81E0CF910F910895F9
:101520001F920F920FB60F92112408B60F9218BE99
:1015300009B60F9219BE0BB60F921BBE0F932F93D5
:101540003F934F935F936F937F938F939F93AF934B
:10155000BF93EF93FF938091CB0487FF07C080E890
:101560008093CA040E948A0213D480C08091CB0465
:1015700082FF18C084E08093CA048091D82186FF3E
:1015800075C08091CC0481FD71C06ADD81116EC08F
:101590008091C321813011F4ADDB68C0843009F043
:1015A00065C021C08091CB0481FF26C082E080937A
:1015B000CA048091D02186FF59C08091CC0481FD5E
:1015C00055C04EDD811152C08091C321823041F45B
:1015D00084E08093C321E0EDF1E202E0069346C08F
:1015E000833009F043C0E9EDF1E204E00593E1ED59
:1015F000F1E204E005933AC08091CB0484FF21C05E
:1016000080E18093CA0481E047DF81E845DF0E94E2
:101610006C021092C3041092D12196E09093D021D5
:1016200083E48093D1211092D9219093D821809383
:10163000D9218FE791E28093D4219093D52121DBAA
:1016400015C08091CB0486FF07C080E48093CA0454
:1016500080E07FDB9BD30AC08091CB0485FF06C06E
:1016600080E28093CA0481E074DB91D3FF91EF9113
:10167000BF91AF919F918F917F916F915F914F91AA
:101680003F912F910F910F900BBE0F9009BE0F90BD
:1016900008BE0F900FBE0F901F9018951F920F92CB
:1016A0000FB60F92112408B60F9218BE09B60F920A
:1016B00019BE0AB60F921ABE0BB60F921BBE0F933D
:1016C0001F932F933F934F935F936F937F938F93CA
:1016D0009F93AF93BF93CF93DF93EF93FF9380914B
:1016E000CC0481FF1AC082E08093CC048091C504B1
:1016F000E0EDF1E28195880FE81BF109208131814D
:10170000205D3142E3E036952795EA95E1F7C22F57
:10171000C69520FF06C080E805C0A2DC882319F327
:1017200086C080E0C80F8C2F97DAFC01808185FF8E
:101730007EC000E20693C11174C08091C321843041
:1017400019F4E6DA9EDA73C0C091D221D091D32188
:1017500080911126909112260091BF211091C021F5
:1017600098012C0F3D1F8217930718F4EC01C01B42
:10177000D10B80910F2690911026AE016FE771E298
:10178000800F911F7CD30C0F1D1F0093BF2110935E
:10179000C021C034D10569F48091C1219091C2214A
:1017A000800F911F20910D2630910E2682179307EE
:1017B00088F00093112610931226E0911526F091DF
:1017C0001626309729F01995811102C085DA2FC0AD
:1017D00091DA2DC0809111269091122680179107E1
:1017E000D9F4E0911526F0911626309779F31995E2
:1017F000882361F38091C1219091C2212091BF2162
:101800003091C021820F931F8093C1219093C221F8
:101810001092BF211092C021E0EDF1E202E00693A8
:1018200006C0C03811F4AEDB02C08C2FABDAFF91DA
:10183000EF91DF91CF91BF91AF919F918F917F9168
:101840006F915F914F913F912F911F910F910F9049
:101850000BBE0F900ABE0F9009BE0F9008BE0F90EE
:101860000FBE0F901F901895CF93DF931F92CDB7A7
:10187000DEB789836EE570E280EC98E0E0D041E06D
:1018800050E0BE016F5F7F4F80EC98E0C6D06EE500
:1018900070E280EC98E0E9D00F90DF91CF9108954D
:1018A000CF92DF92EF92FF920F931F9380EC98E01C
:1018B0007BD0C12CD12C760100E016E32EE631E07E
:1018C00040E06EE570E280EC98E085D0E0ECF8E076
:1018D00080818064808380E01F910F91FF90EF9062
:1018E000DF90CF90C1CF43E050E060E180E096E030
:1018F000D2D043E050E068E080E096E0CCD043E016
:1019000050E064E080E096E0C6D041E050E064E062
:1019100080E496E0C0D043E050E060E880E496E0E8
:10192000BAD041E050E060E280E496E0B4D040E01C
:1019300050E060E480E496E0AED043E050E060E147
:1019400080E496E0A8C0E0E0F6E080E1868388E0ED
:10195000858384E085830895E0E0F6E080E1858377
:1019600088E0858384E08583089580E1E0E0F6E007
:1019700086830895882321F084E0809306060895E5
:1019800084E080930506089568EE73E042D20097E4
:1019900021F488E0809306060895843F914019F46D
:1019A00088E0809305060895CF93DF93EC01C03C57
:1019B00088E0D80719F468E083E006C0C03C89E0FD
:1019C000D80719F468E084E0FAD0888180618883C0
:1019D000DF91CF910895FF920F931F93CF93DF93E1
:1019E000EC01F42EB901A80100E016E32EE631E087
:1019F0000CD187FD0CC0888194E0F99EA0011124D0
:101A00004C70837F482B488388818F7D8883DF914A
:101A1000CF911F910F91FF900895FB01460F571F23
:101A2000E417F50751F02191DC0113962C93DC01AA
:101A300012962C9127FFFBCFF3CF80E00895FB0196
:101A40008081E82FE695E695E69590E2E99FF00122
:101A50001124FA5F282F277081E090E0022E01C048
:101A6000880F0A94EAF786830895FB018081E82FA6
:101A7000E695E695E69590E2E99FF0011124FA5F7C
:101A8000282F277081E090E0022E01C0880F0A9471
:101A9000EAF785830895FC0180E090E0262F30E08E
:101AA000D901082E02C0B595A7950A94E2F7A0FFC8
:101AB00005C0DF01A80FB91F50965C9301968830CE
:101AC000910571F740FF07C041FF02C0658301C067
:101AD000668361830895628308959FB7F894E0E573
:101AE000F0E02081822B80839FBF08959FB7F894F8
:101AF000A0E5B0E016968C911697897F16968C9388
:101B00001697E0E6F0E080E885838BEB86831696F7
:101B10008C911697846016968C9380818160808367
:101B20009FBF0895CF93DF9300D01F92CDB7DEB74C
:101B30008FEF809370008093710080937200809388
:101B4000730080937400809375008093760064E046
:101B500081E490E0AAD06CE170E082E09CD08C83BC
:101B60006DE170E082E097D08B838B819C81019640
:101B700021F480E493E28B839C838B819C81898315
:101B80009A83809362008A818093630082E0A5DF5C
:101B90008091510081FFFCCFA9DF61E080E490E0FB
:101BA00084D09FB7F894809150008E7F809350002E
:101BB0009FBF2496CDBFDEBFDF91CF9108959FB721
:101BC000F894E82FF0E0E059FF4F6095808186237C
:101BD00080839FBF0895CF93863011F4C8E101C080
:101BE000C0E08091510081FD07C082E076DF8091E6
:101BF000510081FFFCCF7ADF6C2F636084E490E0BA
:101C000054D060E480E0CF91DACFCF92DF92EF92B0
:101C1000FF920F931F93CF93DF93EC016A017B0137
:101C2000CB01BA016150710981099109600F711FDF
:101C3000821F931FA701960100D12138310541056C
:101C40005105F8F4213460F4213260F4213160F45C
:101C5000293060F4253060F4233060F080E00BC060
:101C600083E009C082E007C082E805C081E003C0CC
:101C700081E801C080E898819C77982B988381E067
:101C800001C08FEFDF91CF911F910F91FF90EF90E7
:101C9000DF90CF9008954091CA01E62FF72F8093EF
:101CA000CA0184914093CA0108951BBEFC0128ED2E
:101CB00024BF6083089580E05DDE49E65EE060E079
:101CC00074E086E092E20C949201811101C0F3CF9E
:101CD0000895CF93DF931F921F92CDB7DEB7811186
:101CE00010C081E069837A8345DE45E65EE0698164
:101CF0007A8186E092E20F900F90DF91CF910C9461
:101D000086010F900F90DF91CF91089587E0809327
:101D1000A200789410921726109218261092192675
:101D200010921A2610921B2681E080931C26FADE60
:101D3000DADD09DEB5DD0E942A010E9425010E943C
:101D40006B0287E196E2F894A7E1B6E2EA2FE81B7E
:101D50002D912223D9F3E11102C07894F4CF209180
:101D60004800F0E0E555FF4D217F3081232B209383
:101D7000480020914800216020934800789488957D
:101D8000209148002E7F20934800DDCFE5CDEDCD9A
:101D900080910626882311F074DAF6CD089581E04B
:101DA00080930626D0DD87DF81E008951092062615
:101DB000CACD81E0DFDD86E092E280930F2690932A
:101DC000102680910D2690910E26813024E09207F6
:101DD00010F080E094E0809311269093122681E029
:101DE000089580E0C7DD86E092E280930F2690930D
:101DF000102680910D2690910E26813024E09207C6
:101E000010F080E094E0809311269093122681E0F8
:101E10000895AA1BBB1B51E107C0AA1FBB1FA61731
:101E2000B70710F0A61BB70B881F991F5A95A9F783
:101E300080959095BC01CD010895A1E21A2EAA1BB0
:101E4000BB1BFD010DC0AA1FBB1FEE1FFF1FA2176A
:101E5000B307E407F50720F0A21BB30BE40BF50B67
:101E6000661F771F881F991F1A9469F760957095F0
:101E7000809590959B01AC01BD01CF010895FB01B8
:101E8000DC0102C001900D9241505040D8F70895F6
:041E9000F894FFCFF4
:101E94005D015601680153010000000300000000C9
:101EA400000000000000000000000000000000002E
:101EB400000000000000000000000000000000001E
:101EC400000000000000536D616C6C20496D70656A
:101ED40064616E6365204D65746572004D6174655F
:101EE4006A20476F6D626F6300000403090414984D
:101EF40020652000006C20692000200009022900D0
:101F0400010100C0FA0904000000FFFFFF000904FA
:101F1400000102FFFFFF00070581024000000705E2
:101F24000202400000000000120100020000004014
:101F3400EB0323240001010203010000000E060C40
:101F44000400312E30001000200040008000000109
:041F54000002FF0385
:00000001FF
