S0200000696D706564616E63655F6D657465725F6669726D776172652E7372656326
S113000021C1000045C1000043C1000041C10000FE
S11300103FC100003DC100003BC1000039C10000E8
S113002037C1000035C1000033C1000031C10000F8
S11300302FC100000C94BA092BC1000029C1000093
S113004027C1000025C1000023C1000021C1000018
S11300501FC100001DC100001BC1000019C1000028
S113006017C1000015C1000013C1000011C1000038
S11300700FC100000DC100000BC1000009C1000048
S113008007C1000005C1000003C1000001C1000058
S1130090FFC00000FDC00000FBC00000F9C000006C
S11300A0F7C00000F5C00000F3C00000F1C000007C
S11300B0EFC00000EDC000000C94EC09E9C00000A2
S11300C0E7C00000E5C00000E3C00000E1C000009C
S11300D0DFC00000DDC00000DBC00000D9C00000AC
S11300E0D7C00000D5C00000D3C00000D1C00000BC
S11300F0CFC00000CDC00000CBC00000C9C00000CC
S1130100C7C00000C5C00000C3C00000C1C00000DB
S1130110BFC00000BDC00000BBC00000B9C00000EB
S1130120B7C00000B5C00000B3C00000B1C00000FB
S1130130AFC00000ADC00000ABC00000A9C000000B
S1130140A7C00000A5C00000A3C00000A1C000001B
S11301509FC000009DC000009BC0000099C000002B
S113016097C0000095C0000093C0000091C000003B
S11301708FC000008DC000008BC0000089C000004B
S113018087C0000085C0000083C0000081C000005B
S11301907FC000007DC000007BC0000079C000006B
S11301A077C0000075C0000073C0000071C000007B
S11301B06FC000006DC000006BC0000069C000008B
S11301C067C0000065C0000063C0000061C000009B
S11301D05FC000005DC000005BC0000059C00000AB
S11301E057C0000055C0000053C0000051C00000BB
S11301F04FC000000C94DF0E0C949D0F75018A0112
S11302008D019401960198019A01A001A401AA010B
S1130210B001B601B801BA01BC01BE01C001C201FE
S1130220C601CA01CC01D001D401D801DC01E0012E
S1130230E401E801EC01F001F401F801FC01000221
S11302400402080211241FBECFEFCDBFDFE3DEBFDF
S113025000E00CBF18BE19BE1ABE1BBE10E2A0E01F
S1130260B0E2EEEDF6E200E00BBF02C007900D92A3
S1130270A43CB107D9F71BBE26E2A4ECB0E201C04E
S11302801D92A932B207E1F70E94D5120C946D13A6
S1130290B7CE81E00E940911809114268093C42076
S11302A08AEC90E280931B2690931C268091192659
S11302B090911A268530910510F084E090E08093A7
S11302C01D2690931E2681E008958091C42090916C
S11302D014268913C0C090E08432910508F0BBC095
S11302E0FC01E250FF4F0C945E13209119263091CB
S11302F01A2640E0842F90E08217930708F093C0F9
S1130300FC01EA53FF4DDC01A653BF4D8C91808361
S11303104F5FF0CF0E949F1080C08091CA200E943E
S113032083108091CA207AC098D077C09BD075C0C2
S11303309ED073C06091CB208091CA20C1D06BC085
S11303408091CA20EDD067C06BEC70E28091CA2026
S113035018D161C067EC70E28091CA2040D15BC0C3
S113036067EC70E28091CA2066D155C092D153C027
S1130370A6D151C0BAD14FC0CED14DC0E2D14BC0ED
S1130380F6D149C08091CA201ED245C08091CA20AE
S113039039D241C002D23FC08091CA204CD23BC066
S11303A08AEC90E275D237C087EC90E261D233C018
S11303B08AEC90E28DD22FC087EC90E279D22BC0E8
S11303C08AEC90E2A5D227C087EC90E291D223C0B8
S11303D08AEC90E2BDD21FC087EC90E2A9D21BC088
S11303E087EC90E2C5D217C087EC90E2D1D213C05B
S11303F087EC90E2DDD20FC087EC90E2E9D20BC02B
S113040087EC90E204D307C087EC90E21FD303C0CB
S113041087EC90E23AD3882321F081E08093C620D0
S113042002C01092C62086EC90E280931B26909323
S11304301C268091192690911A268530910510F07A
S113044084E090E080931D2690931E2680E00E9415
S1130450091181E0089580E0089584E0E0E4F6E085
S11304608583089584E0E0E4F6E086830895CF93DD
S1130470DF93CDB7DEB72997CDBFDEBF80E593EC20
S1130480A0E0B0E089839A83AB83BC838DE0898745
S11304908BEE90E0A0E0B0E08D839E83AF83B887BD
S11304A060E483E00E942E12BE016F5F7F4F80E8FC
S11304B094E0C4D72996CDBFDEBFDF91CF910895D4
S11304C00F931F93CF93DF93CDB7DEB72C97CDBF98
S11304D0DEBF6C878E010F5F1F4F9BE0F801119206
S11304E09A95E9F79DE099838A8381E090E08D8372
S11304F09E839E01245F3F4F2F83388789879A8785
S113050040E0B80180E894E0AED78111F9CF81E0F2
S11305102C96CDBFDEBFDF91CF911F910F9108952F
S11305200F931F93CF93DF93CDB7DEB72C97CDBF37
S1130530DEBF8C878E010F5F1F4F8BE0F801119295
S11305408A95E9F78DE0898380EB8A8381E090E0E6
S11305508D839E839E01245F3F4F2F833887898735
S11305609A8740E0B80180E894E07DD78111F9CF03
S113057081E02C96CDBFDEBFDF91CF911F910F910B
S113058008950F931F93CF93DF93CDB7DEB72B97C7
S1130590CDBFDEBF8E010F5F1F4F9BE0F8011192AC
S11305A09A95E9F79DE0998390EA9A8321E030E0F7
S11305B02D833E836F83788790E089879A8740E014
S11305C0B80180E894E04FD78111F9CF81E02B96F0
S11305D0CDBFDEBFDF91CF911F910F9108950F938F
S11305E01F93CF93DF93CDB7DEB72B97CDBFDEBF7D
S11305F08E010F5F1F4F9BE0F80111929A95E9F766
S11306009DE099838A8381E090E08D839E836F834C
S1130610788789879A8741E0B80180E894E023D7F6
S11306208111F9CF81E02B96CDBFDEBFDF91CF9151
S11306301F910F9108950F931F93CF93DF93CDB71D
S1130640DEB72B97CDBFDEBF8E010F5F1F4F9BE040
S1130650F80111929A95E9F79DE0998391EA9A83BA
S113066021E030E02D833E836F83788790E0898793
S11306709A8741E0B80180E894E0F5D68111F9CF7A
S113068081E02B96CDBFDEBFDF91CF911F910F91FB
S11306900895CF93DF931F92CDB7DEB71982BE01C1
S11306A06F5F7F4F80E89BDF882329F06981606159
S11306B0698380E805DF0F90DF91CF910895CF9390
S11306C0DF931F92CDB7DEB71982BE016F5F7F4FF4
S11306D080E885DF882329F069816063698380E885
S11306E0EFDE0F90DF91CF910895CF93DF931F92A8
S11306F0CDB7DEB71982BE016F5F7F4F80E86FDF31
S1130700882329F069816064698380E8D9DE0F90C9
S1130710DF91CF910895CF93DF931F92CDB7DEB7CA
S11307201982BE016F5F7F4F80E859DF882329F06B
S113073069816069698380E8C3DE0F90DF91CF919E
S11307400895CF93DF931F92CDB7DEB71982BE0110
S11307506F5F7F4F80E843DF882329F06981606AF7
S1130760698380E8ADDE0F90DF91CF910895CF9338
S1130770DF931F92CDB7DEB71982BE016F5F7F4F43
S113078080E82DDF882329F06981606B698380E824
S113079097DE0F90DF91CF910895CF93DF931F924F
S11307A0CDB7DEB71982BE016F5F7F4F81E817DFD7
S11307B0882329F069816061698381E881DE0F9073
S11307C0DF91CF9108951F93CF93DF931F92CDB7FD
S11307D0DEB7182F843010F080E00FC01982BE01FC
S11307E06F5F7F4F80E8FBDE8823B1F3612F660FD4
S11307F08981682B698380E863DE0F90DF91CF9154
S11308001F9108951F93CF93DF931F92CDB7DEB747
S1130810182F1982BE016F5F7F4F80E8E0DE8823C6
S113082029F06981612B698380E84ADE0F90DF91AA
S1130830CF911F9108951F93CF93DF931F92CDB74C
S1130840DEB7182F1982BE016F5F7F4F81E8C7DEC4
S1130850882349F028E0129FC00111246981682B84
S1130860698381E82DDE0F90DF91CF911F91089568
S1130870CF93DF93EC0182E853DE882329F0BE0195
S113088083E0DF91CF91D7CE80E0DF91CF910895BF
S1130890CF93DF93EC0182E843DE882329F0BE0185
S11308A083E0DF91CF916DCE80E0DF91CF91089509
S11308B0CF93DF93EC0185E833DE882329F0BE0172
S11308C083E0DF91CF91B7CE80E0DF91CF9108959F
S11308D0CF93DF93EC0185E823DE882329F0BE0162
S11308E083E0DF91CF914DCE80E0DF91CF910895E9
S11308F0CF93DF93EC0188E813DE882329F0BE014F
S113090082E0DF91CF9197CE80E0DF91CF9108957F
S1130910CF93DF93EC0188E803DE882329F0BE013E
S113092082E0DF91CF912DCE80E0DF91CF910895C9
S1130930CF93DF93EC018AE8F3DD882329F0BE012D
S113094082E0DF91CF9177CE80E0DF91CF9108955F
S1130950CF93DF93EC018AE8E3DD882329F0BE011D
S113096082E0DF91CF910DCE80E0DF91CF910895A9
S1130970CF93DF93EC0182E9D3DD882329F0BE0114
S113098082E0DF91CF9157CE80E0DF91CF9108953F
S1130990CF93DF93EC0184E9C3DD882329F0BE0102
S11309A082E0DF91CF9147CE80E0DF91CF9108952F
S11309B0CF93DF93EC0186E9B3DD882329F0BE01F0
S11309C082E0DF91CF9137CE80E0DF91CF9108951F
S11309D00F931F93CF93DF931F92CDB7DEB78C0194
S11309E01982BE016F5F7F4F8FE8F9DD882349F0DC
S11309F0998190FF04C091E0F801908302C0F8014E
S1130A0010820F90DF91CF911F910F9108950F9352
S1130A101F93CF93DF931F92CDB7DEB78C0119825A
S1130A20BE016F5F7F4F8FE8DADD882349F099813B
S1130A3092FF04C091E0F801908302C0F801108293
S1130A400F90DF91CF911F910F9108950F931F93F2
S1130A50CF93DF931F92CDB7DEB78C011982BE010D
S1130A606F5F7F4F8FE8BBDD882349F0998191FF49
S1130A7004C091E0F801908302C0F80110820F9045
S1130A80DF91CF911F910F9108950F931F93CF93EF
S1130A90DF931F92CDB7DEB78C013DDE811102C01A
S1130AA080E00CC019828981811106C0CE010196B3
S1130AB08FDF8111F8CFF4CFC8015ADF0F90DF9197
S1130AC0CF911F910F9108958091CE200895809128
S1130AD0CE20813011F40C9425130895FED0FC012E
S1130AE083818093CE20813011F40C941E1381E015
S1130AF0089590911326892F807697FF03C0803440
S1130B0051F4E3CB803439F48091192690911A265C
S1130B10892B09F0BECB80E008950F931F939B01AE
S1130B208A01AC0160E081E80E94190E1F910F91C7
S1130B3008950F931F939B018A01AC0160E082E04A
S1130B400E94190E1F910F910895809115268F7799
S1130B50E1C79091D620992361F1E091D420F091DE
S1130B60D5200190F081E02D9481891710F5E09350
S1130B70D220F093D320228133812E0F3F1FE2171E
S1130B80F30798F49181943061F49281891309C038
S1130B909381691306C0E093D220F093D32081E0BF
S1130BA008959081E90FF11DEACFE093D220F093EC
S1130BB0D32080E00895E091D420F091D5200190D5
S1130BC0F081E02D228133812E0F3F1FFC014081F3
S1130BD0E40FF11DE217F30748F48181843031F00A
S1130BE0853039F08081E80FF11DF4CF80E090E08A
S1130BF00895CF0108951F93CF93DF93182FA9DF92
S1130C00882339F1C091D220D091D320CE01D3DFF3
S1130C10EC01009741F04C815D816B818A818ED714
S1130C208111F4CF16C0E091D420F091D5209281A7
S1130C308381E92FF82FE10FF11DE10FF11D0190E0
S1130C40F081E02D0190F081E02DDF91CF911F9193
S1130C50199480E0DF91CF911F910895FF920F9333
S1130C601F93CF93DF93C82F60E073DFF82E8823A0
S1130C7069F1E091D420F091D52092818381E92F0C
S1130C80F82FEC0FF11DEC0FF11D00811181D8013B
S1130C901696ED91FC9117971995682F8C2F59DFB3
S1130CA0F82E882399F0C091D220D091D320CE0180
S1130CB082DFEC01009721F08A810E94C60EF7CFF3
S1130CC0D8011296ED91FC91139719958F2DDF9110
S1130CD0CF911F910F91FF9008958091D220909110
S1130CE0D3200895A6C6CF938091D62081110AC03F
S1130CF01092D62081E090E08093D7209093D82062
S1130D00CF910895C0E0E091D420F091D5200190D6
S1130D10F081E02D8481C81758F78C2F9FDFCF5FB7
S1130D20F2CFCF938091D6208823F1F0C0E0E091F8
S1130D30D420F091D520A081B18114968C91C8174C
S1130D4098F492818381E92FF82FEC0FF11DEC0FB9
S1130D50F11D0190F081E02D0084F185E02D3097A4
S1130D6009F01995CF5FE3CFCF910895CF92DF9229
S1130D70FF920F931F93CF93DF931F92CDB7DEB7EC
S1130D8010921D2610921E2610921F2610922026C5
S1130D9010922126109222262091132627FF07C0A5
S1130DA08091192690911A26892B09F448C2822F22
S1130DB0807609F0D1C127FFFFC080911926909158
S1130DC01A26009709F4C8C12F7109F09FC0209119
S1130DD01426263069F0283009F490C02111BCC1D2
S1130DE0029709F0B9C162E070E087ED90E2E2C0D9
S1130DF02091152630911626832F9927823091054C
S1130E0091F05CF4019709F0A7C180915F20909163
S1130E106020DC016C9170E05FC08330910581F14A
S1130E200F9709F199C1E0915F20F09160208189C9
S1130E30281708F091C13327220F331F220F331FC5
S1130E40E0916120F0916220E20FF31F8081918193
S1130E50FC016281738169D6E0911B26F0911C2606
S1130E6082E081833AC0809163209091642000974E
S1130E7009F472C1DC0112966D917C9113972CC018
S1130E80C90199278130910541F058F082309105CC
S1130E9069F0039709F4CFC15FC16CE08CE490E280
S1130EA008C064E070E08AE590E216C065E186E37C
S1130EB090E2282FACE0B0E2FC01819190E08D93A8
S1130EC09D938E2F821B8617C0F3660F6E5F60930F
S1130ED00A2070E08AE090E228D680911926909149
S1130EE01A2620911D2630911E268217930708F09A
S1130EF031C180931D2690931E262CC1019709F0C1
S1130F002BC161E070E086ED90E254C02130E1F540
S1130F10209114262A3009F01FC1019709F01CC141
S1130F208091D620882309F417C1C0901726D09049
S1130F3018260091D4201091D520D801ED91FC9170
S1130F408481C81608F008C160E08C2D02DEF82EFA
S1130F50882309F401C1DD24CC0CDD1CD8011296D0
S1130F60ED91FC911397EC0DFD1D0190F081E02DA6
S1130F700680F781E02D19958093D12061E070E01F
S1130F8081ED90E2D2D5E4C0223009F0E5C0209191
S1130F9014262111E1C0029709F0DEC080911726C2
S1130FA028D690E08093CF209093D02062E070E028
S1130FB08FEC90E2BAD5CEC02F7109F07DC080913C
S1130FC01426833009F4C8C018F48130A1F0C4C0D9
S1130FD0853019F0893039F1BFC08091192690917C
S1130FE01A26892B09F0B8C085EA95E080931F265C
S1130FF090932026AFC08091192690911A26892BB0
S113100009F0AAC08091152690911626019709F03F
S1131010A3C08091D7209091D8208D7F8093D72032
S11310209093D82097C08091192690911A26892BE5
S113103009F092C072D5882309F48EC080911526D8
S1131040909116269927E0915F20F09160202189E4
S113105030E02817390708F47FC045DE20911526B3
S1131060309116262093D620222309F473C0332707
S11310702150304C220F331F220F331F80916120E7
S113108090916220820F931F8093D4209093D52057
S113109010E0E091D420F091D5200190F081E02D72
S11310A08481181708F056C060E0812FA4DD8823DE
S11310B009F452C01F5FEDCF2130F1F48091142662
S11310C08B3009F049C08091192690911A26892BFA
S11310D009F042C08091D620882309F43DC01091C4
S11310E0172660911526812F6983B8DD69818823CD
S11310F099F1812F80DD2BC0223071F58091142667
S1131100813019F0833089F027C08091192690919D
S11311101A26892B09F58091152690911626892B7C
S1131120D9F4809117266CD512C08091192690911C
S11311301A26892B89F48091152690911626892BDD
S113114059F480911726F7D58091172628D6F82EC2
S1131150FF2011F081E074C0809113268F718130DB
S1131160B9F58091D620882399F1C0901726D090A4
S113117018260091D4201091D520D801ED91FC912E
S11311808481C81628F560E08C2DE3DC882301F106
S1131190C6019927880F991FD8011296ED91FC91E9
S11311A01397E80FF91F00811181D8011696ED916C
S11311B0FC9117971995682F8C2DCBDC882341F06F
S11311C0D8011496ED91FC91159719958111C2CF10
S11311D0809113268F71823091F58091D6208823D7
S11311E071F110E0E091D420F091D520A081B1817B
S11311F014968C91181718F592818381E92FF82F92
S1131200E10FF11DE10FF11DC080D180D6011696CA
S1131210ED91FC9117971995682F812F9ADC8823FB
S113122071F0D6011496ED91FC91159719958111E1
S113123091CF1F5FD7CF63E082EB90E23ACE80E09C
S11312400F90DF91CF911F910F91FF90DF90CF907E
S11312500895CF93DF93E091D920F091DA2084812F
S113126083FF06C08860848383E0838386EF7DC028
S1131270982F947121F083E083838FEF76C086FFEB
S113128040C0A091DB20B091DC208091DD209091C2
S1131290DE2014962D913C9115978217930764F4E0
S11312A09C012F5F3F4F2093DD203093DE20A80F59
S11312B0B91F11968C9121C08091DF209091E0207C
S11312C018962D913C91199782179307C0F4209199
S11312D0E120222321F086818160868348C016960E
S11312E00D90BC91A02D9C012F5F3F4F2093DF20D8
S11312F03093E020A80FB91F8C91878338C083E016
S11313002BC087FF31C0A091DB20B091DC208091FD
S1131310DF209091E02018962D913C911997821727
S11313209307F0F41696CD91DC9117979C012F5FEB
S11313303F4F2093DF203093E0204781C80FD91F0F
S1131340488318968D919C9119972817390718F49A
S113135082E083830CC087E083831092E32007C07C
S113136083E0838389EF01C08BEF8093E320DF91D7
S1131370CF9108951F920F920FB60F92112408B6C1
S11313800F9218BE09B60F9219BE0BB60F921BBE70
S11313902F933F934F935F936F937F938F939F9379
S11313A0AF93BF93EF93FF9354DFFF91EF91BF91FE
S11313B0AF919F918F917F916F915F914F913F91E9
S11313C02F910F900BBE0F9009BE0F9008BE0F9087
S11313D00FBE0F901F9018951F920F920FB60F9289
S11313E0112408B60F9218BE09B60F9219BE0BB697
S11313F00F921BBE2F933F934F935F936F937F93F3
S11314008F939F93AF93BF93EF93FF9322DFFF914B
S1131410EF91BF91AF919F918F917F916F915F9168
S11314204F913F912F910F900BBE0F9009BE0F90DB
S113143008BE0F900FBE0F901F901895FC01DB01A2
S113144014968C91858388EB818381E08483109248
S1131450E2201092E320E0EAF0E08281826082835D
S1131460789480E00895FB01009709F443C0309715
S113147009F440C032852091E220222321F0332355
S1131480E1F386EF08952FB7F89431E03093E2202A
S113149030E83093E3202FBF8093D9209093DA2053
S11314A0E093DB20F093DC201092DD201092DE200C
S11314B01092DF201092E0204093E1205081550FDC
S11314C024813581232B11F441115160FC01568391
S11314D08091E3208038E1F3E091D920F091DA2083
S11314E084818370813009F0F7CF8091E3201092DA
S11314F0E220089588EF0895282F2F70992787FDFB
S113150090958827990F881F9927820F911D820F24
S1131510911D43E0880F991F4A95E1F784529E4D2F
S113152008950F93E8ECF4E080818F7D80838081BF
S11315308F7D8083E4EEF1E202E005931092E621D0
S11315401092E72100E2069300E40693ECEDF1E249
S113155000E2069300E4069310921F2610922026C0
S1131560109221261092222610921D2610921E26D9
S11315701092CD210F9108950F9385E08093CD2192
S1131580E5EEF1E204E00593EDEDF1E204E005930C
S11315900F9108950F9383E08093CD211092E6215B
S11315A01092E721E4EEF1E202E006930F91089530
S11315B0E0911F26F0912026309709F019940895A0
S11315C0982F9F70282F332727FD30952227330F1C
S11315D0221F3327290F311D290F311D22503109B4
S11315E049E0429FC001439F900D11248B599E4DA9
S11315F0089590911022811108C0992381F02FB78A
S1131600F89490912426915007C0911108C02FB7E7
S1131610F894909124269F5F909324262FBF809363
S1131620102208958F929F92BF92CF92DF92EF92F1
S1131630FF920F931F93CF93DF93B82EC1DFEC017A
S11316408B2D5ADF7C01DC011196EC91E770E1509F
S1131650E73040F4F0E0EE0FFF1FEA54FF4D008145
S1131660118102C008E010E0ED81FE818B819C8134
S11316704881D701B7FE4FC016962D913C9117971C
S11316802E0F3F1F2D833E832817390799F1FC0144
S1131690E21BF30B9F012115F4E03F0738F02FEF15
S11316A033E0C901B801D4D7281B390B41FF09C065
S11316B0C901B801CDD741E0892B09F040E0942F4E
S11316C001C090E0888190FB81F98883D701169648
S11316D01D921C92179712962D933C931397898110
S11316E09A812D813E81820F931F14968D939C9332
S11316F015970DC041FF70C04D7F4883D7011696E2
S11317001D921C92179712961D921C921397F70123
S113171002E006937AC01296CD90DC90139742FFB4
S11317200FC089809A80B80193D7B0E4BB9EB00102
S113173011246B557F4DAC01C4018E0F9F1FC4D77C
S11317406D817E816C0D7D1D6D837E832B813C813B
S11317502617370710F42D833E83F701868197817E
S1131760C816D906C9F58D819E8182179307A1F108
S1131770281B390B2115F4E03F0710F02FEF33E05D
S1131780C901B80165D7281B390BD70112961D92E0
S11317901C9213972017310778F48881846088831A
S11317A0B0E4BB9EC00111248B559F4DF701848387
S11317B0958306831783ABCF89819A814D815E819E
S11317C0840F951FD70114968D939C9315971696A5
S11317D02D933C9317979BCF888180FF16C08E7FF3
S11317E08883EF81F885309781F06D817E814B2D60
S11317F080E0DF91CF911F910F91FF90EF90DF90E8
S1131800CF90BF909F908F901994DF91CF911F91AB
S11318100F91FF90EF90DF90CF90BF909F908F90AB
S113182008950F93CF93DF938091CD21833029F4D2
S1131830BFDEDF91CF910F9174CE2091C9213091F9
S1131840CA21C0911D26D0911E26C21BD30B61F55F
S11318508091CB219091CC21820F931F8093CB2137
S11318609093CC212091192630911A2628173907F4
S113187021F08091E420882331F084E08093CD210D
S1131880ECEDF1E236C0E0912126F091222630976A
S113189099F01995882381F01092C9211092CA21D8
S11318A0C0911D26D0911E26C034D10528F0109277
S11318B0E420C0E4D0E003C081E08093E420C0933E
S11318C0E621D093E7212091C9213091CA2180914A
S11318D01B2690911C26820F931F8093E8219093DE
S11318E0E921C20FD31FC093C921D093CA21E4EECA
S11318F0F1E202E00693DF91CF910F9108950F93E7
S1131900CF93DF931F92CDB7DEB78091CC0480FFD5
S113191065C081E08093CC04ECEDF1E200E806932D
S1131920E4EEF1E200E806938093CA04ECEDF1E200
S113193000E106938091CD21882329F083508230E1
S113194008F436DEEEDD8091DE219091DF210897E8
S113195009F046C088E0E9E8F1E2A3E1B6E20190CB
S11319600D928A95E1F78091C80480628093C8043F
S11319708091C80480628093C804F8D9811102C0A0
S1131980FBDD2EC09091132697FF0EC01092CB2141
S11319901092CC211092C9211092CA2192E0909306
S11319A0CD2189833EDF08C02091192630911A2663
S11319B0232B21F48983EEDD898113C01092CB217E
S11319C01092CC211092C9211092CA2191E09093D7
S11319D0CD21ECEDF1E202E0069303C080E001C00A
S11319E081E00F90DF91CF910F910895CF93CFB7FE
S11319F0F89481E0FEDDEAECF4E080E4808380E2A8
S1131A008083E1ECF4E0808181608083A9ECB4E020
S1131A108C9182608C93E8ECF4E080818064808314
S1131A208C9181608C93808180688083CFBFCF91BB
S1131A300895CF931092600080E31CD58091C00478
S1131A4080648093C00481E080936000CFB7F894F1
S1131A501092DD211092E5211092ED211092F521D2
S1131A601092FD2110920522809165218E7F809332
S1131A70652180916E218E7F80936E2180917721E4
S1131A808E7F80937721809180218E7F8093802127
S1131A906AE170E082E04ED58F3F09F48FE18093D4
S1131AA0FA046BE170E082E045D58F3F09F48FE1E1
S1131AB08093FB048091C00482608093C004809171
S1131AC0C00480688093C0048091C00480618093C6
S1131AD0C0048CED91E28093C6049093C704809176
S1131AE0C00480628093C0048FEF8093C50480910A
S1131AF0C80481608093C804109210229FB7F894A0
S1131B00809128268F5F809328269FBF6FDFCFBFE9
S1131B10CF9108958093C30408958091C3040895D8
S1131B2080910C2290910D22089580931B2690930E
S1131B301C2660931D2670931E2608950F931F93F1
S1131B40CF93DF931F92CDB7DEB78A016983D4DCCC
S1131B50FC018181807C6981811142C063706130A4
S1131B6029F010F490E403C090E801C090EC003830
S1131B701105E1F050F400321105A1F00034110513
S1131B8099F00031110561F419C0011582E01807BC
S1131B9089F00F3FA3E01A0779F00115114041F0D5
S1131BA080E00DC082E00BC083E009C084E007C080
S1131BB085E005C086E003C087E001C081E01182B2
S1131BC026E02083892B81838181807C803C21F4E1
S1131BD081818770873031F081818062818302C086
S1131BE080E001C081E00F90DF91CF911F910F91B0
S1131BF0089582DCFC01818182FB882780F90895A5
S1131C00CF93C82F79DCFC01818182FF0FC09181C1
S1131C109B7F91838C2FD4DCFC01808180FF06C0E4
S1131C208E7F80830780F085E02D199581E0CF9128
S1131C3008958F929F92BF92CF92DF92EF92FF927C
S1131C400F931F93CF93DF931F92CDB7DEB7B82EB8
S1131C506A0179016983B4DC4C018B2D4DDCFC01F4
S1131C608181807C6981882309F457C08181807CCB
S1131C70803C19F0818182FD50C08FB7F894D40163
S1131C809C9190FF02C08FBF48C09160D4019C9387
S1131C908FBFD4011196CD92DC9212971396ED92D8
S1131CA0FC92149715961D921C92169717960D93F5
S1131CB01C93189791E0611104C0E114F10409F038
S1131CC090E0D4018C9190FB81F98B7F8C93B7FCCD
S1131CD01EC08181807C803CC1F4A181A770A15089
S1131CE0A73040F4B0E0AA0FBB1FAA54BF4D6D91BA
S1131CF07C9102C068E070E0C701AAD4892B29F066
S1131D00F40180818E7F808308C012821382168240
S1131D1017828B2D87DC81E001C080E00F90DF917A
S1131D20CF911F910F91FF90EF90DF90CF90BF90D4
S1131D309F908F9008950F931F93CF93DF93182F45
S1131D40DBDBEC01812F3CDCDC01FE0102E00593CE
S1131D508C9180FF16C08E7F8C931796ED91FC9129
S1131D601897309771F017FF03C06E817F8102C00E
S1131D706A817B81412F81E0DF91CF911F910F9187
S1131D801994DF91CF911F910F910895CF93C82F8C
S1131D90D2DF8C2FB1DBFC011182CF9108950F9318
S1131DA0CF93C82FA9DBFC0191819460918301E05A
S1131DB006938C2FC0DF81E0CF910F9108951F927D
S1131DC00F920FB60F92112408B60F9218BE09B6DF
S1131DD00F9219BE0BB60F921BBE0F932F933F9316
S1131DE04F935F936F937F938F939F93AF93BF931F
S1131DF0EF93FF938091CB0487FF07C080E8809323
S1131E00CA040E94910613D480C08091CB0482FF3F
S1131E1018C084E08093CA048091E42186FF75C0D1
S1131E208091CC0481FD71C06ADD81116EC0809106
S1131E30CD21813011F4AEDB68C0843009F065C077
S1131E4021C08091CB0481FF26C082E08093CA0424
S1131E508091DC2186FF59C08091CC0481FD55C05E
S1131E604EDD811152C08091CD21823041F484E055
S1131E708093CD21ECEDF1E202E0069346C083307D
S1131E8009F043C0E5EEF1E204E00593EDEDF1E283
S1131E9004E005933AC08091CB0484FF21C080E123
S1131EA08093CA0481E047DF81E845DF0E9473061E
S1131EB01092C3041092DD2196E09093DC2183E418
S1131EC08093DD211092E5219093E4218093E52114
S1131ED089E891E28093E0219093E12122DB15C00F
S1131EE08091CB0486FF07C080E48093CA0480E01D
S1131EF080DB9BD30AC08091CB0485FF06C080E2BF
S1131F008093CA0481E075DB91D3FF91EF91BF9177
S1131F10AF919F918F917F916F915F914F913F917D
S1131F202F910F910F900BBE0F9009BE0F9008BE1A
S1131F300F900FBE0F901F9018951F920F920FB61F
S1131F400F92112408B60F9218BE09B60F9219BE4B
S1131F500AB60F921ABE0BB60F921BBE0F931F93B5
S1131F602F933F934F935F936F937F938F939F939D
S1131F70AF93BF93CF93DF93EF93FF938091CC0400
S1131F8081FF1AC082E08093CC048091C504ECEDFB
S1131F90F1E28195880FE81BF109208131812C5DE4
S1131FA03142E3E036952795EA95E1F7C22FC695CD
S1131FB020FF06C080E805C0A2DC882319F386C090
S1131FC080E0C80F8C2F98DAFC01808185FF7EC0E9
S1131FD000E20693C11174C08091CD21843019F4BC
S1131FE0E7DA9FDA73C0C091DE21D091DF218091BE
S1131FF01D2690911E260091C9211091CA21980195
S11320002C0F3D1F8217930718F4EC01C01BD10B52
S113201080911B2690911C26AE0169E871E2800F25
S1132020911F52D30C0F1D1F0093C9211093CA2175
S1132030C034D10569F48091CB219091CC21800FDB
S1132040911F2091192630911A268217930788F040
S113205000931D2610931E26E0912126F09122263E
S1132060309729F01995811102C086DA2FC092DACF
S11320702DC080911D2690911E2680179107D9F4BA
S1132080E0912126F0912226309779F3199588233F
S113209061F38091CB219091CC212091C921309181
S11320A0CA21820F931F8093CB219093CC2110924D
S11320B0C9211092CA21ECEDF1E202E0069306C0B8
S11320C0C03811F4AEDB02C08C2FACDAFF91EF9173
S11320D0DF91CF91BF91AF919F918F917F916F913C
S11320E05F914F913F912F911F910F910F900BBED4
S11320F00F900ABE0F9009BE0F9008BE0F900FBE3E
S11321000F901F901895CF93DF931F92CDB7DEB732
S113211089836EE570E280EC98E0E0D041E050E025
S1132120BE016F5F7F4F80EC98E0C6D06EE570E231
S113213080EC98E0E9D00F90DF91CF910895CF9291
S1132140DF92EF92FF920F931F9380EC98E07BD085
S1132150C12CD12C760100E016E32EE631E040E0FC
S11321606EE570E280EC98E085D0E0ECF8E08081E8
S11321708064808380E01F910F91FF90EF90DF9047
S1132180CF90C1CF43E050E060E180E096E0D2D050
S113219043E050E068E080E096E0CCD043E050E0DB
S11321A064E080E096E0C6D041E050E064E080E482
S11321B096E0C0D043E050E060E880E496E0BAD016
S11321C041E050E060E280E496E0B4D040E050E0CA
S11321D060E480E496E0AED043E050E060E180E467
S11321E096E0A8C0E0E0F6E080E1868388E085839D
S11321F084E085830895E0E0F6E080E1858388E06B
S1132200858384E08583089580E1E0E0F6E08683B9
S11322100895882321F084E080930606089584E0DD
S113222080930506089568EE73E012D2009721F4B6
S113223088E0809306060895843F914019F488E06D
S1132240809305060895CF93DF93EC01C03C88E0AA
S1132250D80719F468E083E006C0C03C89E0D807D9
S113226019F468E084E0FAD0888180618883DF9182
S1132270CF910895FF920F931F93CF93DF93EC01B7
S1132280F42EB901A80100E016E32EE631E00CD1EA
S113229087FD0CC0888194E0F99EA00111244C7044
S11322A0837F482B488388818F7D8883DF91CF91FA
S11322B01F910F91FF900895FB01460F571FE417DC
S11322C0F50751F02191DC0113962C93DC01129651
S11322D02C9127FFFBCFF3CF80E00895FB01808191
S11322E0E82FE695E695E69590E2E99FF001112442
S11322F0FA5F282F277081E090E0022E01C0880F3A
S11323000A94EAF786830895FB018081E82FE69515
S1132310E695E69590E2E99FF0011124FA5F282FF3
S1132320277081E090E0022E01C0880F0A94EAF73A
S113233085830895FC0180E090E0262F30E0D901E8
S1132340082E02C0B595A7950A94E2F7A0FF05C030
S1132350DF01A80FB91F50965C9301968830910550
S113236071F740FF07C041FF02C0658301C0668367
S113237061830895628308959FB7F894E0E5F0E0DF
S11323802081822B80839FBF08959FB7F894A0E596
S1132390B0E016968C911697897F16968C931697B3
S11323A0E0E6F0E080E885838BEB868316968C91DB
S11323B01697846016968C938081816080839FBF7A
S11323C00895CF93DF9300D01F92CDB7DEB78FEF80
S11323D080937000809371008093720080937300E7
S11323E080937400809375008093760064E081E4A8
S11323F090E0AAD06CE170E082E09CD08C836DE127
S113240070E082E097D08B838B819C81019621F4CC
S113241080E493E28B839C838B819C8189839A8360
S1132420809362008A818093630082E0A5DF8091BB
S1132430510081FFFCCFA9DF61E080E490E084D00B
S11324409FB7F894809150008E7F809350009FBF77
S11324502496CDBFDEBFDF91CF9108959FB7F89446
S1132460E82FF0E0E059FF4F609580818623808358
S11324709FBF0895CF93863011F4C8E101C0C0E036
S11324808091510081FD07C082E076DF8091510088
S113249081FFFCCF7ADF6C2F636084E490E054D03A
S11324A060E480E0CF91DACFCF92DF92EF92FF9297
S11324B00F931F93CF93DF93EC016A017B01CB0150
S11324C0BA016150710981099109600F711F821F5E
S11324D0931FA7019601D0D021383105410551053C
S11324E0F8F4213460F4213260F4213160F42930AD
S11324F060F4253060F4233060F080E00BC083E0AA
S113250009C082E007C082E805C081E003C081E819
S113251001C080E898819C77982B988381E001C062
S11325208FEFDF91CF911F910F91FF90EF90DF908C
S1132530CF9008954091CA01E62FF72F8093CA01E6
S113254084914093CA0108951BBEFC0128ED24BF69
S11325506083089580E05DDE48EB52E160E074E062
S113256082E192E20C949905811101C0F3CF0895A0
S1132570CF93DF931F921F92CDB7DEB7811110C0A6
S113258081E069837A8345DE44EB52E169817A8193
S113259082E192E20F900F90DF91CF910C948D0520
S11325A00F900F90DF91CF91089587E08093A20060
S11325B078941092232610922426109225261092A5
S11325C026261092272681E080932826FADEDADD7B
S11325D009DEB5DD0E9437020E9432020E947206B3
S11325E083E296E2F894A3E2B6E2EA2FE81B2D9187
S11325F02223D9F3E11102C07894F4CF209148004A
S1132600F0E0E555FF4D217F3081232B20934800D6
S11326102091480021602093480078948895209167
S113262048002E7F20934800DDCFE5CDEDCD80918D
S11326301226882311F074DAF6CD089581E0809390
S11326401226D0DD87DF81E0089510921226CACDCC
S1132650AA1BBB1B51E107C0AA1FBB1FA617B707C4
S113266010F0A61BB70B881F991F5A95A9F78095E0
S11326709095BC01CD010895A1E21A2EAA1BBB1BA3
S1132680FD010DC0AA1FBB1FEE1FFF1FA217B3073A
S1132690E407F50720F0A21BB30BE40BF50B661F50
S11326A0771F881F991F1A9469F760957095809514
S11326B090959B01AC01BD01CF010895EE0FFF1F62
S11326C00590F491E02D1994FB01DC0102C0019006
S11126D00D9241505040D8F70895F894FFCF72
S11326DE6E0567057905640500000003000000001F
S11326EE00000000000000000000000000000000D8
S11326FE00000000000000000000000000000000C8
S113270E000000000000536D616C6C20496D706513
S113271E64616E6365204D65746572004D61746508
S113272E6A20476F6D626F630000040309041498F6
S113273E20652000006C2069200020000902290079
S113274E010100C0FA0904000000FFFFFF000904A4
S113275E000102FFFFFF000705810240000007058C
S113276E02024000000000001201000200000040BE
S113277EEB0323240001010203010000000E060CEA
S113278E0400312E300010002000400080000001B3
S107279E0002FF032F
S9030000FC
