S0200000696D706564616E63655F6D657465725F6669726D776172652E7372656326
S1130000FDC0000021C100001FC100001DC100008F
S11300101BC1000019C1000017C1000015C1000078
S113002013C1000011C100000FC100000DC1000088
S11300300BC100006CC6000007C1000005C1000030
S113004003C1000001C10000FFC00000FDC00000AA
S1130050FBC00000F9C00000F7C00000F5C00000BC
S1130060F3C00000F1C00000EFC00000EDC00000CC
S1130070EBC00000E9C00000E7C00000E5C00000DC
S1130080E3C00000E1C00000DFC00000DDC00000EC
S1130090DBC00000D9C00000D7C00000D5C00000FC
S11300A0D3C00000D1C00000CFC00000CDC000000C
S11300B0CBC00000C9C000005CC60000C5C0000081
S11300C0C3C00000C1C00000BFC00000BDC000002C
S11300D0BBC00000B9C00000B7C00000B5C000003C
S11300E0B3C00000B1C00000AFC00000ADC000004C
S11300F0ABC00000A9C00000A7C00000A5C000005C
S1130100A3C00000A1C000009FC000009DC000006B
S11301109BC0000099C0000097C0000095C000007B
S113012093C0000091C000008FC000008DC000008B
S11301308BC0000089C0000087C0000085C000009B
S113014083C0000081C000007FC000007DC00000AB
S11301507BC0000079C0000077C0000075C00000BB
S113016073C0000071C000006FC000006DC00000CB
S11301706BC0000069C0000067C0000065C00000DB
S113018063C0000061C000005FC000005DC00000EB
S11301905BC0000059C0000057C0000055C00000FB
S11301A053C0000051C000004FC000004DC000000B
S11301B04BC0000049C0000047C0000045C000001B
S11301C043C0000041C000003FC000003DC000002B
S11301D03BC0000039C0000037C0000035C000003B
S11301E033C0000031C000002FC000002DC000004B
S11301F02BC000000C94AC0B0C946A0C11241FBE91
S1130200CFEFCDBFDFE3DEBF00E00CBF18BE19BEE9
S11302101ABE1BBE10E2A0E0B0E2ECE6F0E200E0A1
S11302200BBF02C007900D92A43CB107D9F71BBEC7
S113023026E2A4ECB0E201C01D92A533B207E1F7B7
S11302400E94A20F0C943410DBCE81E00E94D60DE4
S1130250809120268093C42080ED90E2809327260D
S11302609093282680912526909126268B309105FF
S113027010F08AE090E08093292690932A2681E06A
S11302800895CF93C091C42080912026C81342C002
S1130290C13001F158F0C230E9F58091D0200E94BC
S11302A0500D8091D0208093C6201CC0209125261B
S11302B03091262640E0842F90E08217930790F433
S11302C0FC01EA53FF4DDC01A053BF4D8C918083A8
S11302D04F5FF1CFB0D0882319F0C093C62002C07D
S11302E01092C62086EC90E28093272690932826CD
S11302F080912526909126268B30910510F08AE076
S113030090E08093292690932A2680E00E94D60DBF
S113031081E001C080E0CF91089584E0E0E4F6E05C
S113032086830895CF93DF93CDB7DEB72997CDBFEA
S1130330DEBF80E593ECA0E0B0E089839A83AB83D1
S1130340BC838DE089878BEE90E0A0E0B0E08D83E4
S11303509E83AF83B88760E483E00E94FB0EBE01F6
S11303606F5F7F4F80E894E036D52996CDBFDEBF1E
S1130370DF91CF9108950F931F93CF93DF93CDB760
S1130380DEB72C97CDBFDEBF6C878E010F5F1F4F8A
S11303909BE0F80111929A95E9F79DE099838A838D
S11303A081E090E08D839E839E01245F3F4F2F83E5
S11303B0388789879A8740E0B80180E894E020D59F
S11303C0883F21F08111F7CF81E001C080E02C96B5
S11303D0CDBFDEBFDF91CF911F910F9108950F9391
S11303E01F93CF93DF93CDB7DEB72B97CDBFDEBF7F
S11303F08E010F5F1F4F9BE0F80111929A95E9F768
S11304009DE099838A8381E090E08D839E836F834E
S1130410788789879A8741E0B80180E894E0F0D42E
S11304208111F9CF81E02B96CDBFDEBFDF91CF9153
S11304301F910F910895CF93DF931F92CDB7DEB72D
S11304401982BE016F5F7F4F80E8C9DF882329F0DE
S11304506981606A698380E88EDF0F90DF91CF91B4
S113046008958091DA2008958091DA20813011F482
S11304700C94F20F0895FED0FC0183818093DA205E
S1130480813011F40C94EB0F81E0089590911F26B4
S1130490892F807697FF03C0803451F4F2CE8034E4
S11304A039F48091252690912626892B09F0CDCE0A
S11304B080E008950F931F939B018A01AC0160E0D3
S11304C081E80E94E60A1F910F9108950F931F93EC
S11304D09B018A01AC0160E082E00E94E60A1F9160
S11304E00F910895809121268F77E1C79091E220A2
S11304F0992361F1E091E020F091E1200190F081F5
S1130500E02D9481891710F5E093DE20F093DF202D
S1130510228133812E0F3F1FE217F30798F4918154
S1130520943061F49281891309C09381691306C0E0
S1130530E093DE20F093DF2081E008959081E90FBD
S1130540F11DEACFE093DE20F093DF2080E00895F0
S1130550E091E020F091E1200190F081E02D2281F2
S113056033812E0F3F1FFC014081E40FF11DE21780
S1130570F30748F48181843031F0853039F080818B
S1130580E80FF11DF4CF80E090E00895CF010895C5
S11305901F93CF93DF93182FA9DF882339F1C091DC
S11305A0DE20D091DF20CE01D3DFEC01009741F0B3
S11305B04C815D816B818A818ED78111F4CF16C005
S11305C0E091E020F091E12092818381E92FF82FDE
S11305D0E10FF11DE10FF11D0190F081E02D01907B
S11305E0F081E02DDF91CF911F91199480E0DF918C
S11305F0CF911F910895FF920F931F93CF93DF9391
S1130600C82F60E073DFF82E882369F1E091E020C1
S1130610F091E12092818381E92FF82FEC0FF11DF5
S1130620EC0FF11D00811181D8011696ED91FC911A
S113063017971995682F8C2F59DFF82E882399F076
S1130640C091DE20D091DF20CE0182DFEC01009743
S113065021F08A810E94930BF7CFD8011296ED9175
S1130660FC91139719958F2DDF91CF911F910F91C5
S1130670FF9008958091DE209091DF200895A6C612
S1130680CF938091E22081110AC01092E22081E090
S113069090E08093E3209093E420CF910895C0E00C
S11306A0E091E020F091E1200190F081E02D84813F
S11306B0C81758F78C2F9FDFCF5FF2CFCF9380916D
S11306C0E2208823F1F0C0E0E091E020F091E12005
S11306D0A081B18114968C91C81798F4928183817A
S11306E0E92FF82FEC0FF11DEC0FF11D0190F081B3
S11306F0E02D0084F185E02D309709F01995CF5F46
S1130700E3CFCF910895CF92DF92FF920F931F937F
S1130710CF93DF931F92CDB7DEB7109229261092A4
S11307202A2610922B2610922C2610922D261092F7
S11307302E2620911F2627FF07C080912526909101
S11307402626892B09F448C2822F807609F0D1C16C
S113075027FFFFC08091252690912626009709F453
S1130760C8C12F7109F09FC020912026263069F05E
S1130770283009F490C02111BCC1029709F0B9C115
S113078062E070E083EE90E2E2C020912126309195
S11307902226832F99278230910591F05CF40197EA
S11307A009F0A7C180915F2090916020DC016C91D9
S11307B070E05FC08330910581F10F9709F199C111
S11307C0E0915F20F09160208189281708F091C1A1
S11307D03327220F331F220F331FE0916120F09142
S11307E06220E20FF31F80819181FC016281738199
S11307F069D6E0912726F091282682E081833AC0C9
S11308008091632090916420009709F472C1DC0107
S113081012966D917C9113972CC0C9019927813050
S1130820910541F058F08230910569F0039709F47D
S1130830CFC15FC16CE08CE490E208C064E070E07A
S11308408AE590E216C065E186E390E2282FACE0E9
S1130850B0E2FC01819190E08D939D938E2F821BD9
S11308608617C0F3660F6E5F60930A2070E08AE01B
S113087090E228D68091252690912626209129263B
S113088030912A268217930708F031C180932926D4
S113089090932A262CC1019709F02BC161E070E0E6
S11308A082EE90E254C02130E1F5209120262A30D6
S11308B009F01FC1019709F01CC18091E22088232F
S11308C009F417C1C0902326D09024260091E0207B
S11308D01091E120D801ED91FC918481C81608F0B3
S11308E008C160E08C2D02DEF82E882309F401C1D2
S11308F0DD24CC0CDD1CD8011296ED91FC911397EC
S1130900EC0DFD1D0190F081E02D0680F781E02DB6
S113091019958093DD2061E070E08DED90E2D2D5F1
S1130920E4C0223009F0E5C0209120262111E1C065
S1130930029709F0DEC08091232628D690E08093A8
S1130940DB209093DC2062E070E08BED90E2BAD57E
S1130950CEC02F7109F07DC080912026833009F428
S1130960C8C018F48130A1F0C4C0853019F08930B2
S113097039F1BFC08091252690912626892B09F054
S1130980B8C082E792E080932B2690932C26AFC0C8
S11309908091252690912626892B09F0AAC0809162
S11309A0212690912226019709F0A3C08091E3208B
S11309B09091E4208D7F8093E3209093E42097C06E
S11309C08091252690912626892B09F092C072D514
S11309D0882309F48EC0809121269091222699279C
S11309E0E0915F20F0916020218930E028173907D9
S11309F008F47FC045DE20912126309122262093E1
S1130A00E220222309F473C033272150304C220FF3
S1130A10331F220F331F8091612090916220820F37
S1130A20931F8093E0209093E12010E0E091E02078
S1130A30F091E1200190F081E02D8481181708F0F5
S1130A4056C060E0812FA4DD882309F452C01F5FE3
S1130A50EDCF2130F1F4809120268B3009F049C08C
S1130A608091252690912626892B09F042C08091F9
S1130A70E220882309F43DC01091232660912126A9
S1130A80812F6983B8DD6981882399F1812F80DD05
S1130A902BC0223071F580912026813019F08330EB
S1130AA089F027C08091252690912626892B09F567
S1130AB08091212690912226892BD9F48091232696
S1130AC06CD512C08091252690912626892B89F415
S1130AD08091212690912226892B59F480912326F6
S1130AE0F7D58091232628D6F82EFF2011F081E037
S1130AF074C080911F268F718130B9F58091E220F6
S1130B00882399F1C0902326D09024260091E020D8
S1130B101091E120D801ED91FC918481C81628F54B
S1130B2060E08C2DE3DC882301F1C6019927880F4E
S1130B30991FD8011296ED91FC911397E80FF91FB4
S1130B4000811181D8011696ED91FC9117971995A2
S1130B50682F8C2DCBDC882341F0D8011496ED91BD
S1130B60FC91159719958111C2CF80911F268F7121
S1130B70823091F58091E220882371F110E0E091B8
S1130B80E020F091E120A081B18114968C91181796
S1130B9018F592818381E92FF82FE10FF11DE10F00
S1130BA0F11DC080D180D6011696ED91FC91179766
S1130BB01995682F812F9ADC882371F0D601149639
S1130BC0ED91FC9115971995811191CF1F5FD7CFA6
S1130BD063E082EB90E23ACE80E00F90DF91CF9118
S1130BE01F910F91FF90DF90CF900895CF93DF93E3
S1130BF0E091E520F091E620848183FF06C08860BF
S1130C00848383E0838386EF7DC0982F947121F0E1
S1130C1083E083838FEF76C086FF40C0A091E720F6
S1130C20B091E8208091E9209091EA2014962D91CA
S1130C303C9115978217930764F49C012F5F3F4FF3
S1130C402093E9203093EA20A80FB91F11968C91C4
S1130C5021C08091EB209091EC2018962D913C912D
S1130C60199782179307C0F42091ED20222321F0D5
S1130C7086818160868348C016960D90BC91A02D14
S1130C809C012F5F3F4F2093EB203093EC20A80F63
S1130C90B91F8C91878338C083E02BC087FF31C094
S1130CA0A091E720B091E8208091EB209091EC2076
S1130CB018962D913C91199782179307F0F4169684
S1130CC0CD91DC9117979C012F5F3F4F2093EB2030
S1130CD03093EC204781C80FD91F488318968D9113
S1130CE09C9119972817390718F482E083830CC064
S1130CF087E083831092EF2007C083E0838389EF2A
S1130D0001C08BEF8093EF20DF91CF9108951F9264
S1130D100F920FB60F92112408B60F9218BE09B69F
S1130D200F9219BE0BB60F921BBE2F933F934F9396
S1130D305F936F937F938F939F93AF93BF93EF933F
S1130D40FF9354DFFF91EF91BF91AF919F918F91EA
S1130D507F916F915F914F913F912F910F900BBEB7
S1130D600F9009BE0F9008BE0F900FBE0F901F90FA
S1130D7018951F920F920FB60F92112408B60F9276
S1130D8018BE09B60F9219BE0BB60F921BBE2F9355
S1130D903F934F935F936F937F938F939F93AF93FF
S1130DA0BF93EF93FF9322DFFF91EF91BF91AF9138
S1130DB09F918F917F916F915F914F913F912F916F
S1130DC00F900BBE0F9009BE0F9008BE0F900FBE80
S1130DD00F901F901895FC01DB0114968C9185836C
S1130DE088EB818381E084831092EE201092EF20BF
S1130DF0E0EAF0E0828182608283789480E0089562
S1130E00FB01009709F443C0309709F440C03285D0
S1130E102091EE20222321F03323E1F386EF08957D
S1130E202FB7F89431E03093EE2030E83093EF2080
S1130E302FBF8093E5209093E620E093E720F09382
S1130E40E8201092E9201092EA201092EB201092F0
S1130E50EC204093ED205081550F24813581232BC4
S1130E6011F441115160FC0156838091EF208038C8
S1130E70E1F3E091E520F091E620848183708130F4
S1130E8009F0F7CF8091EF201092EE20089588EFBB
S1130E900895282F2F70992787FD90958827990FFB
S1130EA0881F9927820F911D820F911D43E0880F9F
S1130EB0991F4A95E1F788519E4D08950F93E8ECE8
S1130EC0F4E080818F7D808380818F7D8083E0EF5B
S1130ED0F1E202E005931092F2211092F32100E274
S1130EE0069300E40693E8EEF1E200E2069300E4E0
S1130EF0069310922B2610922C2610922D261092D7
S1130F002E261092292610922A261092D9210F916A
S1130F1008950F9385E08093D921E1EFF1E204E095
S1130F200593E9EEF1E204E005930F9108950F9320
S1130F3083E08093D9211092F2211092F321E0EF03
S1130F40F1E202E006930F910895E0912B26F091CF
S1130F502C26309709F019940895982F9F70282F04
S1130F60332727FD30952227330F221F3327290FDC
S1130F70311D290F311D2250310949E0429FC00122
S1130F80439F900D11248F589E4D089590911C22DB
S1130F90811108C0992381F02FB7F89490913026DD
S1130FA0915007C0911108C02FB7F8949091302642
S1130FB09F5F909330262FBF80931C2208958F92B9
S1130FC09F92BF92CF92DF92EF92FF920F931F9363
S1130FD0CF93DF93B82EC1DFEC018B2D5ADF7C0158
S1130FE0DC011196EC91E770E150E73040F4F0E059
S1130FF0EE0FFF1FEA54FF4D0081118102C008E08B
S113100010E0ED81FE818B819C814881D701B7FE80
S11310104FC016962D913C9117972E0F3F1F2D838D
S11310203E832817390799F1FC01E21BF30B9F015A
S11310302115F4E03F0738F02FEF33E0C901B80180
S1131040D4D7281B390B41FF09C0C901B801CDD73A
S113105041E0892B09F040E0942F01C090E08881A1
S113106090FB81F98883D70116961D921C921797DD
S113107012962D933C93139789819A812D813E81F9
S1131080820F931F14968D939C9315970DC041FF67
S113109070C04D7F4883D70116961D921C921797F6
S11310A012961D921C921397F70102E006937AC0E0
S11310B01296CD90DC90139742FF0FC089809A80DE
S11310C0B80193D7B0E4BB9EB00111246F547F4D97
S11310D0AC01C4018E0F9F1FBED76D817E816C0D44
S11310E07D1D6D837E832B813C812617370710F489
S11310F02D833E83F70186819781C816D906C9F5E9
S11311008D819E8182179307A1F1281B390B21152C
S1131110F4E03F0710F02FEF33E0C901B80165D7C1
S1131120281B390BD70112961D921C921397201776
S1131130310778F4888184608883B0E4BB9EC00161
S113114011248F549F4DF70184839583068317835D
S1131150ABCF89819A814D815E81840F951FD70120
S113116014968D939C93159716962D933C931797ED
S11311709BCF888180FF16C08E7F8883EF81F8859E
S1131180309781F06D817E814B2D80E0DF91CF918E
S11311901F910F91FF90EF90DF90CF90BF909F90A1
S11311A08F901994DF91CF911F910F91FF90EF9041
S11311B0DF90CF90BF909F908F9008950F93CF931F
S11311C0DF938091D921833029F4BFDEDF91CF9161
S11311D00F9174CE2091D5213091D621C09129262A
S11311E0D0912A26C21BD30B61F58091D72190910F
S11311F0D821820F931F8093D7219093D8212091D7
S11312002526309126262817390721F08091F020D1
S1131210882331F084E08093D921E8EEF1E236C0EE
S1131220E0912D26F0912E26309799F01995882378
S113123081F01092D5211092D621C0912926D09107
S11312402A26C034D10528F01092F020C0E4D0E062
S113125003C081E08093F020C093F221D093F32166
S11312602091D5213091D62180912726909128264E
S1131270820F931F8093F4219093F521C20FD31F03
S1131280C093D521D093D621E0EFF1E202E006939A
S1131290DF91CF910F9108950F93CF93DF931F9216
S11312A0CDB7DEB78091CC0480FF65C081E0809328
S11312B0CC04E8EEF1E200E80693E0EFF1E200E8A6
S11312C006938093CA04E8EEF1E200E1069380916C
S11312D0D921882329F08350823008F436DEEEDDEC
S11312E08091EA219091EB21089709F046C088E0AB
S11312F0E5E9F1E2AFE1B6E201900D928A95E1F7FA
S11313008091C80480628093C8048091C80480627C
S11313108093C804F8D9811102C0FBDD2EC09091DE
S11313201F2697FF0EC01092D7211092D821109239
S1131330D5211092D62192E09093D92189833EDF62
S113134008C02091252630912626232B21F4898359
S1131350EEDD898113C01092D7211092D82110920A
S1131360D5211092D62191E09093D921E8EEF1E2B3
S113137002E0069303C080E001C081E00F90DF919A
S1131380CF910F910895CF93CFB7F89481E0FEDD0C
S1131390EAECF4E080E4808380E28083E1ECF4E032
S11313A0808181608083A9ECB4E08C9182608C930D
S11313B0E8ECF4E08081806480838C9181608C937C
S11313C0808180688083CFBFCF910895CF9310929E
S11313D0600080E31CD58091C00480648093C004C5
S11313E081E080936000CFB7F8941092E9211092C5
S11313F0F1211092F92110920122109209221092E7
S11314001122809171218E7F8093712180917A21A4
S11314108E7F80937A21809183218E7F8093832194
S113142080918C218E7F80938C216AE170E082E030
S11314304ED58F3F09F48FE18093FA046BE170E09D
S113144082E045D58F3F09F48FE18093FB048091BE
S1131450C00482608093C0048091C004806880933B
S1131460C0048091C00480618093C00488EE91E23E
S11314708093C6049093C7048091C00480628093D3
S1131480C0048FEF8093C5048091C8048160809369
S1131490C80410921C229FB7F894809134268F5F61
S11314A0809334269FBF6FDFCFBFCF910895809381
S11314B0C30408958091C3040895809118229091E3
S11314C0192208958093272690932826609329262D
S11314D070932A2608950F931F93CF93DF931F923F
S11314E0CDB7DEB78A016983D4DCFC018181807CBD
S11314F06981811142C06370613029F010F490E475
S113150003C090E801C090EC00381105E1F050F4FC
S113151000321105A1F00034110599F000311105D4
S113152061F419C0011582E0180789F00F3FA3E0A8
S11315301A0779F00115114041F080E00DC082E0F6
S11315400BC083E009C084E007C085E005C086E0E5
S113155003C087E001C081E0118226E02083892B4B
S113156081838181807C803C21F4818187708730F4
S113157031F081818062818302C080E001C081E01A
S11315800F90DF91CF911F910F91089582DCFC01A0
S1131590818182FB882780F90895CF93C82F79DC55
S11315A0FC01818182FF0FC091819B7F91838C2FED
S11315B0D4DCFC01808180FF06C08E7F808307809D
S11315C0F085E02D199581E0CF9108958F929F9237
S11315D0BF92CF92DF92EF92FF920F931F93CF931C
S11315E0DF931F92CDB7DEB7B82E6A017901698304
S11315F0B4DC4C018B2D4DDCFC018181807C698144
S1131600882309F457C08181807C803C19F0818152
S113161082FD50C08FB7F894D4019C9190FF02C012
S11316208FBF48C09160D4019C938FBFD4011196A1
S1131630CD92DC9212971396ED92FC921497159624
S11316401D921C92169717960D931C93189791E070
S1131650611104C0E114F10409F090E0D4018C910B
S113166090FB81F98B7F8C93B7FC1EC08181807CB9
S1131670803CC1F4A181A770A150A73040F4B0E030
S1131680AA0FBB1FAA54BF4D6D917C9102C068E0A4
S113169070E0C701AAD4892B29F0F40180818E7FE0
S11316A0808308C012821382168217828B2D87DCF6
S11316B081E001C080E00F90DF91CF911F910F91E5
S11316C0FF90EF90DF90CF90BF909F908F90089500
S11316D00F931F93CF93DF93182FDBDBEC01812F44
S11316E03CDCDC01FE0102E005938C9180FF16C016
S11316F08E7F8C931796ED91FC911897309771F02B
S113170017FF03C06E817F8102C06A817B81412FF4
S113171081E0DF91CF911F910F911994DF91CF91C7
S11317201F910F910895CF93C82FD2DF8C2FB1DB77
S1131730FC011182CF9108950F93CF93C82FA9DB99
S1131740FC0191819460918301E006938C2FC0DFAA
S113175081E0CF910F9108951F920F920FB60F92CF
S1131760112408B60F9218BE09B60F9219BE0BB613
S11317700F921BBE0F932F933F934F935F936F93DF
S11317807F938F939F93AF93BF93EF93FF93809136
S1131790CB0487FF07C080E88093CA040E945E03DD
S11317A013D480C08091CB0482FF18C084E080935E
S11317B0CA048091F02186FF75C08091CC0481FD1C
S11317C071C06ADD81116EC08091D921813011F41C
S11317D0AEDB68C0843009F065C021C08091CB04C1
S11317E081FF26C082E08093CA048091E82186FFAD
S11317F059C08091CC0481FD55C04EDD811152C089
S11318008091D921823041F484E08093D921E8EE9B
S1131810F1E202E0069346C0833009F043C0E1EFF1
S1131820F1E204E00593E9EEF1E204E005933AC045
S11318308091CB0484FF21C080E18093CA0481E0BD
S113184047DF81E845DF0E9440031092C3041092F1
S1131850E92196E09093E82183E48093E9211092B2
S1131860F1219093F0218093F12185E991E2809315
S1131870EC219093ED2122DB15C08091CB0486FFEF
S113188007C080E48093CA0480E080DB9BD30AC055
S11318908091CB0485FF06C080E28093CA0481E076
S11318A075DB91D3FF91EF91BF91AF919F918F9190
S11318B07F916F915F914F913F912F910F910F9075
S11318C00BBE0F9009BE0F9008BE0F900FBE0F9075
S11318D01F9018951F920F920FB60F92112408B6FD
S11318E00F9218BE09B60F9219BE0AB60F921ABE0D
S11318F00BB60F921BBE0F931F932F933F934F93DF
S11319005F936F937F938F939F93AF93BF93CF9383
S1131910DF93EF93FF938091CC0481FF1AC082E0A0
S11319208093CC048091C504E8EEF1E28195880FA0
S1131930E81BF10920813181285E3142E3E03695CC
S11319402795EA95E1F7C22FC69520FF06C080E8E7
S113195005C0A2DC882319F386C080E0C80F8C2F51
S113196098DAFC01808185FF7EC000E20693C111F4
S113197074C08091D921843019F4E7DA9FDA73C0F6
S1131980C091EA21D091EB218091292690912A26B9
S11319900091D5211091D62198012C0F3D1F82175B
S11319A0930718F4EC01C01BD10B8091272690916A
S11319B02826AE0165E971E2800F911F4CD30C0F0C
S11319C01D1F0093D5211093D621C034D10569F48D
S11319D08091D7219091D821800F911F20912526A5
S11319E0309126268217930788F0009329261093B6
S11319F02A26E0912D26F0912E26309729F019956C
S1131A00811102C086DA2FC092DA2DC08091292676
S1131A1090912A2680179107D9F4E0912D26F09110
S1131A202E26309779F31995882361F38091D72175
S1131A309091D8212091D5213091D621820F931FE6
S1131A408093D7219093D8211092D5211092D6213A
S1131A50E8EEF1E202E0069306C0C03811F4AEDB12
S1131A6002C08C2FACDAFF91EF91DF91CF91BF913F
S1131A70AF919F918F917F916F915F914F913F9122
S1131A802F911F910F910F900BBE0F900ABE0F90D4
S1131A9009BE0F9008BE0F900FBE0F901F901895AF
S1131AA0CF93DF931F92CDB7DEB789836EE570E2E3
S1131AB080EC98E0E0D041E050E0BE016F5F7F4FE2
S1131AC080EC98E0C6D06EE570E280EC98E0E9D056
S1131AD00F90DF91CF910895CF92DF92EF92FF9212
S1131AE00F931F9380EC98E07BD0C12CD12C76010E
S1131AF000E016E32EE631E040E06EE570E280ECB3
S1131B0098E085D0E0ECF8E080818064808380E018
S1131B101F910F91FF90EF90DF90CF90C1CF43E0E2
S1131B2050E060E180E096E0D2D043E050E068E02D
S1131B3080E096E0CCD043E050E064E080E096E0C2
S1131B40C6D041E050E064E080E496E0C0D043E0D9
S1131B5050E060E880E496E0BAD041E050E060E212
S1131B6080E496E0B4D040E050E060E480E496E0A5
S1131B70AED043E050E060E180E496E0A8C0E0E04D
S1131B80F6E080E1868388E0858384E08583089598
S1131B90E0E0F6E080E1858388E0858384E0858366
S1131BA0089580E1E0E0F6E086830895882321F03B
S1131BB084E080930606089584E0809305060895E2
S1131BC068EE73E012D2009721F488E08093060651
S1131BD00895843F914019F488E0809305060895A0
S1131BE0CF93DF93EC01C03C88E0D80719F468E098
S1131BF083E006C0C03C89E0D80719F468E084E0BB
S1131C00FAD0888180618883DF91CF910895FF9213
S1131C100F931F93CF93DF93EC01F42EB901A80126
S1131C2000E016E32EE631E00CD187FD0CC088817C
S1131C3094E0F99EA00111244C70837F482B4883C3
S1131C4088818F7D8883DF91CF911F910F91FF90C1
S1131C500895FB01460F571FE417F50751F0219132
S1131C60DC0113962C93DC0112962C9127FFFBCFF9
S1131C70F3CF80E00895FB018081E82FE695E69597
S1131C80E69590E2E99FF0011124FA5F282F27706E
S1131C9081E090E0022E01C0880F0A94EAF786835F
S1131CA00895FB018081E82FE695E695E69590E29C
S1131CB0E99FF0011124FA5F282F277081E090E05A
S1131CC0022E01C0880F0A94EAF785830895FC0167
S1131CD080E090E0262F30E0D901082E02C0B595AF
S1131CE0A7950A94E2F7A0FF05C0DF01A80FB91F6A
S1131CF050965C9301968830910571F740FF07C0B8
S1131D0041FF02C0658301C06683618308956283D5
S1131D1008959FB7F894E0E5F0E02081822B80835A
S1131D209FBF08959FB7F894A0E5B0E016968C91F4
S1131D301697897F16968C931697E0E6F0E080E874
S1131D4085838BEB868316968C9116978460169602
S1131D508C938081816080839FBF0895CF93DF93AC
S1131D6000D01F92CDB7DEB78FEF809370008093C1
S1131D707100809372008093730080937400809349
S1131D8075008093760064E081E490E0AAD06CE171
S1131D9070E082E09CD08C836DE170E082E097D0AB
S1131DA08B838B819C81019621F480E493E28B8365
S1131DB09C838B819C8189839A83809362008A812E
S1131DC08093630082E0A5DF8091510081FFFCCF06
S1131DD0A9DF61E080E490E084D09FB7F89480911B
S1131DE050008E7F809350009FBF2496CDBFDEBFEE
S1131DF0DF91CF9108959FB7F894E82FF0E0E05970
S1131E00FF4F60958081862380839FBF0895CF9381
S1131E10863011F4C8E101C0C0E08091510081FD19
S1131E2007C082E076DF8091510081FFFCCF7ADF2A
S1131E306C2F636084E490E054D060E480E0CF9140
S1131E40DACFCF92DF92EF92FF920F931F93CF934B
S1131E50DF93EC016A017B01CB01BA016150710986
S1131E6081099109600F711F821F931FA7019601B9
S1131E70D0D02138310541055105F8F4213460F4FE
S1131E80213260F4213160F4293060F4253060F4AB
S1131E90233060F080E00BC083E009C082E007C01B
S1131EA082E805C081E003C081E801C080E8988130
S1131EB09C77982B988381E001C08FEFDF91CF91BD
S1131EC01F910F91FF90EF90DF90CF900895409174
S1131ED0CA01E62FF72F8093CA0184914093CA0167
S1131EE008951BBEFC0128ED24BF6083089580E0A3
S1131EF05DDE45E85FE060E074E08EE192E20C9420
S1131F006602811101C0F3CF0895CF93DF931F922E
S1131F101F92CDB7DEB7811110C081E069837A8347
S1131F2045DE41E85FE069817A818EE192E20F90BB
S1131F300F90DF91CF910C945A020F900F90DF9184
S1131F40CF91089587E08093A200789410922F2671
S1131F501092302610923126109232261092332697
S1131F6081E080933426FADEDADD09DEB5DD0E94F5
S1131F7092010E948D010E943F038FE296E2F89441
S1131F80AFE2B6E2EA2FE81B2D912223D9F3E11147
S1131F9002C07894F4CF20914800F0E0E555FF4D5D
S1131FA0217F3081232B2093480020914800216019
S1131FB02093480078948895209148002E7F2093A0
S1131FC04800DDCFE5CDEDCD80911E26882311F0AC
S1131FD074DAF6CD089581E080931E26D0DD87DF84
S1131FE081E0089510921E26CACDAA1BBB1B51E1A5
S1131FF007C0AA1FBB1FA617B70710F0A61BB70B75
S1132000881F991F5A95A9F780959095BC01CD0119
S11320100895A1E21A2EAA1BBB1BFD010DC0AA1F25
S1132020BB1FEE1FFF1FA217B307E407F50720F03D
S1132030A21BB30BE40BF50B661F771F881F991FB8
S11320401A9469F760957095809590959B01AC0101
S1132050BD01CF010895FB01DC0102C001900D9286
S10F206041505040D8F70895F894FFCF89
S113206C3B0234024602310200000003000000006F
S113207C0000000000000000000000000000000050
S113208C0000000000000000000000000000000040
S113209C000000000000536D616C6C20496D70658C
S11320AC64616E6365204D65746572004D61746581
S11320BC6A20476F6D626F6300000403090414986F
S11320CC20652000006C20692000200009022900F2
S11320DC010100C0FA0904000000FFFFFF0009041D
S11320EC000102FFFFFF0007058102400000070505
S11320FC0202400000000000120100020000004037
S113210CEB0323240001010203010000000E060C62
S113211C0400312E3000100020004000800000012B
S107212C0002FF03A7
S9030000FC
